:1000000002141102194E7AB199223202075D758FDE
:020010001C22B0
:07001300021965758F1D2223
:07001B0002178B758F1E22F6
:10002300021A147E340003121689701090006CE0DB
:10003300700474018001E490006CF0221218F3B490
:0E004300050B7E1D5D7A1D4DE4900096F022A7
:0700530002197C758F1F22CA
:07005B00021710758F20222F
:1000630002000A7D03439B807E34FEDB7E24007EF8
:0E0073007A1B007E34FEDC7A1B10539B7F222A
:0F008300021993758F21A5EF540FA2E064082294
:070093000215F8758F2F2202
:07009B000217C12830290003
:1000A3000217F77F707F517EC400017ED401347E36
:1000B3009400B90200F34005E47A7BB0227A7BB066
:1000C3000B7C22540F2490D43440D430F30CBEB0B4
:1000D300414007BEB05B500224204CCC68021BC0D9
:1000E3000B84D389944CCC680B74201200DD80F50B
:1000F300CA3B6D889F337CAE7E5BB00B5C7007C3DD
:100103007D38DA3B8994B42569C2F37E5BB00B5C1E
:10011300A5F824D0BEB00A501B7E500A20F60DACC1
:100123005CA52D7CCB70034EF00180DDAC5DA52D6D
:100133007CDB80D524CFBEB01AA5E850055E00DF76
:10014300D2F39004C8A3E4936011BCB078F774179A
:10015300934CAB30F6B34EF08080AEA3E4936010C3
:10016300BCB078F77416937C3B7423937C2B89146F
:100173007CB0801374201200DD20F205BEC0025053
:10018300F31B6D29B600011200DD0200E81B6E6946
:100193001600020B6A00BE08000078087E0400FF08
:1001A3007E14009E20F21E4CCC681A7F10E47E1B46
:1001B300804C8868070B1C04BCBD78F2C2F6CA0BDE
:1001C3001202C7DA0B7E0BB060C0CA0B1200DDDA75
:1001D3000B0B0C4CDD68EE1BD078EA80ADD2F07EC1
:1001E300101080037E10085EB05F800AD2F67E1086
:1001F3000A80057E100AC2F66D119F117E00201B36
:100203006C7E6B7030F6021A3720F1051B6C7E6B27
:100213006030F6041A261A2430F0051B6D0B6A2091
:10022300A5EC3382F692F6500A7CEA9F229F217F47
:10023300127CAE4C44780F7C457C567C676C772EE1
:1002430000F878EF80122F117CB3337C3B9CB140D4
:10025300047C3B0B70A5D8EE7CB230E005DAB8C461
:100263004C3BCA380B207E00207E3000BE180000B5
:1002730078C1BE1008780730F404C2F480B5CA28E8
:100283007CB2BCBD38027CBD1202C7DA28BC2D503B
:100293000A1BD0E4CA281200C680F07CB213DAB875
:1002A3004004C4CAB8C4CA28BEF08040095CDD78E3
:1002B30005A5DA0260065EF07F1200C6DA28A5DA29
:1002C300DA0200E8BEF001680F30F402240220F5E0
:1002D3000620F70330F6010420F229BCBC5025CADE
:1002E300B87CBF13B0E67420501174307C8A5E80F2
:1002F300F068081203075EA00F80031200DDDAB86E
:10030300BCBC78DB30F40F74301200DD745830F36A
:100313000274781200DD30F605742D0200DD742BB3
:1003230020F5F8742020F7F3221B6C7E6BB010F1DC
:10033300021B6C20F60B30E704F404D2F27CCB8072
:100343000520E7057CDB02010C5EF07F80F81B6E65
:10035300691600020B6A0030F0076D221B0A200B9E
:100363000D1B0A800200F7E46C22BE3007500B7F9E
:100373001F2D312E34FFF77E39B0227CBF20E7A832
:10038300742E4EF0800200DD1204B1403D7CBD703E
:1003930003047CDB1205C87C3D4C3368101B307CA6
:1003A300BE20E40912036A70044C3378F07CBD7CF0
:1003B300D3BEA0FD481CBCAB5818E49CBA2CB318A0
:1003C30001E47CDB0204521204B1406E7CBD0412D2
:1003D30005C87AFBA07CAE7CBDA2F492F0C2F440C7
:1003E3000260010424051202C77E30FF0B301203A2
:1003F3006ACA381200C620F0044CDD680312037E7B
:10040300DA38BC3D78E6740E1200C6742B7EFBA06E
:1004130030F707742D6EA0FF0BA07AFBA01200DD4E
:100423007EA00A7EFBB0847AFBA01200C67EFBB0DE
:100433001200C69EF800080200E8D2F27ED0000245
:1004430001A71204B140F37CBA2CBD041205C87A8B
:10045300FBA07CBA7CAE30E701E40420F4044CDD5D
:100463006805D2F0C2F4042CBD1202C76C337EFBC4
:10047300B0601B20E712147AFBB012036ACA381269
:1004830000C6DA380B3080E6047AFBB01B30120367
:100493006ACA381200C64CDD680712037E1BD0807F
:1004A300E19EF8000930F00312037E0200E87CEAC3
:1004B3007CAF10F7037ED0067CFA1B6E6936000210
:1004C3000B6A200205102D2B204C4248232E00538B
:1004D300584F44494355502A4E464547000420800F
:1004E300010200104090E2E7EFEF7CF6E02C51456B
:1004F300CA8B010101010101010103030403034E3E
:10050300614E002B494E46002D494E46007D522D2B
:10051300557CBE92E67CEB7CBA601F0470287CB5E8
:10052300C2E77E0400FF60067E140502D3227E1418
:10053300050B40047E140506D322DA099F22CA2B39
:10054300CA2BC3CA09220A0A7E144D10AD109E0895
:100553003AF09E10267CB5C2E77EA0567C9BA46E23
:1005630054FFFF2E54C511ACA92D15E4A539CAB803
:10057300CA1B20E70A12063BDA1B120056800AF454
:100583000412063BDA1B12001EDAA87CB5337CB4D6
:10059300334E50806C4424822F111478FBDA497453
:1005A30007BE400A40099E400ACA0201140BA0CAB2
:1005B300486C442F117F012F112F112F101478EF46
:1005C300CA48CA49227F0F20E73ABEB007400274E7
:1005D300070A0B2D109E1400097E19B02EB0FB5094
:1005E3001F4C116817E47A19B01B147E19B0047AF2
:1005F30019B0B40A0BE47A19B0A5D9ED0BA07401B4
:100603007A19B0225EE0BF223F8000004120000043
:1006130042C80000447A0000461C400047C3500013
:10062300497424004B1896804CBEBC205A0E1BCA3A
:100633006753C21C749DC5AE7C7B60065407681665
:1006430023231206607CB75438680A7F1012065DB4
:1006530012001E7F01227CB7543803241C6CAA2E7F
:1006630054060B7E4400FF0B2A006912000222C2CB
:10067300D57CB430E708B2D56E24FFFF0B247CB6DB
:1006830030E712B2D56E34FFFF0B348D326E24FF88
:10069300FF0B2480028D3230D5066E34FFFF0B34FE
:1006A300227D02AD31AD102D21226D0074104D005D
:1006B300780B4D2278278D317D126D22227D437D6B
:1006C300326D222F112D445002A50FBF1040049FFD
:1006D300100B901478ED7F016D227D34227D417DD6
:1006E300138D247D022F004004BD0440049D040BA0
:1006F300141478F17D237D317D106D0022C2D57CE9
:10070300B030E708B2D59F229F207F027CB430E748
:1007130013B2D59F229F217F121206AF9F229F20E3
:100723007F0280031206AF30D5069F229F217F12DE
:10073300226CAABE08000068201E540B5450167E7B
:100743001B807A0B800B1C0B0C800A0B1A401B0AB4
:10075300400B1D0B0D1B5478F222CA7BCA6BCA5B7C
:10076300CA4BCA3BCA2BCA1BCA0BC0D1C0D0C08359
:10077300C0827E18002D9000D6793E00021BEA202D
:100783007E18003B9000DA793E00021BEA207E18B7
:10079300003D9000DE793E00021BEA207E18003FF8
:1007A3009000E2793E00021BEA207E0800297E18B1
:1007B300002B1211FE740112148D121A047A35499A
:1007C3001200267E25297CB4121A5E7F017E252D18
:1007D3007CB4121A5E1216446D117E044334120067
:1007E3001E7E140FDB7E044049120056CA1B7E2571
:1007F3003D7CB4121A5E7F01DA1B1215A87E0D0828
:100803006D337E2442B41200167A1D5D7E0D4D12A7
:1008130000167F716D117E043F80120086280974D3
:100823000190006DF0E4801B6D117E04BF807F1783
:100833001200865009E490006DF074018005E49085
:10084300006DF09000B3F090009A691E00020BEA6D
:10085300007F1712001E7A1D517F031200167F01BD
:100863007A1D597E1D2112000E7A1D216DDD7EC475
:10087300C4617E5D217F157F061200865002800FC2
:100883006DDD7EC444617F157F0612008628037ADE
:100893006D217E0D2190008E693E00020BEA20122D
:1008A300001E7F617E0D59900092693E00020BEAA3
:1008B3002012001E7F0612000E7F617E0D557E1DE5
:1008C3005912001690008A691E00020BEA001200FA
:1008D3001E7F0612000E7F317E1D597A1D557A3D0B
:1008E300419F007F17120086283E7E140FDB7E0493
:1008F30040497F1712001E6D117E044334120056C7
:100903001200966D117E04447512001E90008669D4
:100913001E00020BEA001200167F717E0D517E3419
:10092300999A7E24BE9980597E0D4D7E1D5D1200DD
:10093300169F00120086507B7E0D4D7E1D5D1200BA
:1009430016121A517E140FDB7E04404912001E6DED
:10095300117E0443341200561200966D117E044436
:100963007512001E900086691E00020BEA00120039
:10097300167F717E1D51121A517E14999A7E04BE00
:100983009912001E7E14A8F67E0442F412000E7F14
:100993000712001E12005E900076691E00020BEA29
:1009A3000012001E6D117E0441F012000E121A583F
:1009B3007A354B7E354BBE34001E58097E24001E0B
:1009C3007A254B800DBE34009608077E3400967A54
:1009D300354B7E1420007E0444B77E1D4112000E69
:1009E300121A587A3525BE34050F58067E34050F82
:1009F300800D7E3525BE34066308077E3406637A90
:100A030035257E1D5D90017C0BEA1012155570494A
:100A13007E05499E054B7A056190006A0BEA207DAD
:100A2300323E347E14000FAD102D3190006A2E2516
:100A3300611BEA20BE3407D008067E3407D0800A43
:100A4300BE34E89058047E34E8909E3400467A35EC
:100A5300276D339E3527121A3C900069E004F07E1F
:100A630034000A121915D082D083D0D0D0D1DA0B3A
:100A7300DA1BDA2BDA3BDA4BDA5BDA6BDA7B32CA74
:100A83003B7F309000FD7AEB709000FCF0E4900027
:100A9300FEF09000FFF07E3400019001001BEA306D
:100AA300020C3DE49000FEF07E3400019001001B37
:100AB300EA3080529000FEE00A3B6D227F012E0453
:100AC30000FF2E081D837E0BA09000FFE00A1B2D64
:100AD300177D067E0BB0BCAB78252E2400FF2E18A5
:100AE3001D847E1B6029700001BC6778129000FE94
:100AF3007EEB70740EACB79001001BEA50801F9020
:100B030000FEE00BB1F09000FEE00A3B6D222E24C4
:100B130000FF2E181D837E1B70BE707F38969000D9
:100B2300FCE0BEB076280BE49000FCF09000FDE002
:100B330004F09000FCE09000FD7EEB701218D09062
:100B430001000BEA30BE3400017803020BDB900096
:100B5300FCE09000FD7EEB701218D0E49000FEF0F4
:100B63009001000BEA306D222E2400FF2E181A8FFD
:100B73007E1BB01218869001000BEA300B341BEA7F
:100B8300309000FEE004F09000FEE0B40ED290003E
:100B9300FDE00A3B0B349001027AEB709000FCE01D
:100BA3001218D0E49000FEF09001000BEA306D22A1
:100BB3002E2400FF2E181A8F7E1BB0121886900168
:100BC300000BEA300B341BEA309000FEE004F09097
:100BD30000FEE0B40ED280549000FFE004F09000D9
:100BE300FCE09000FD7EEB701218D0E49000FEF064
:100BF300E41218869000FEE004F09000FEE0B410CA
:100C0300EF9000FDE00A3B0B349001027AEB709009
:100C130000FCE01218D0E49000FEF0E41218869075
:100C230000FEE004F09000FEE0B410EF9000FCE062
:100C3300240EF09000FFE00BB1F09000FFE00A3BC0
:100C43002D377D267E1BB06003020AA6DA3B22CA3B
:100C53003B7D707D619000FE1BEA209000FC1BEA47
:100C63003075BDAA7E34005A1219C175BDAA7E34EF
:100C7300005A1219C175BDF17E34005A1219C1759B
:100C8300BD0F7E34005A1219C19000FC0BEA300AE2
:100C930056F5BD7E34005A1219C19000FC0BEA5080
:100CA300F5BD7E34005A1219C19000FE0BEA300ADA
:100CB30056F5BD7E34005A1219C19000FE0BEA505E
:100CC300F5BD7E34005A1219C10A5CF5BD7E3400AD
:100CD3005A1219C17CBDF5BD7E34005A1219C10ADE
:100CE3005EF5BD7E34005A1219C17CBFF5BD7E345A
:100CF300005A1219C19001000BEA300A56F5BD7E65
:100D030034005A1219C19001000BEA50F5BD7E342C
:100D1300005A1219C19001020BEA300A56F5BD7E42
:100D230034005A1219C19001020BEA50F5BD7E340A
:100D3300005A1219C19001040BEA300A56F5BD7E20
:100D430034005A1219C19001040BEA50F5BD7E34E8
:100D5300005A1219C19001060BEA300A56F5BD7EFE
:100D630034005A1219C19001060BEA50F5BD7E34C6
:100D7300005A1219C175BDFB7E34005A1219C1DA2B
:100D83003B22CAF87DF3439B8074027E34FEF17EDE
:100D930024007E7A1BB0E47E14FEEC7E04007E7A8F
:100DA3000BB07E34FEED7A1BB07EF0607E54FEE81D
:100DB3007E44007E7A2BF07E54FEE97A2BF07E543B
:100DC300FEEA7A2BF07E54FEEB7A2BF074337A0B27
:100DD300B07A1BB07D1F6D007E3496807E24009810
:100DE3001207007E14FEF27E04007E7A0B607C37CD
:100DF3007E34FEF37E24007E7A1B30E47E34FEF5DF
:100E03007A1BB074147E34FEF67A1BB0E47E34FE93
:100E1300F77A1BB074147E34FEF87A1BB0E47E3488
:100E2300FEF97A1BB074147E34FEFA7A1BB0E47EAA
:100E330034FEFB7A1BB074147E34FEFC7A1BB0E4E0
:100E43007E34FEB57A1BB07E1BB044017A1BB07EA4
:100E53001BB044047A1BB07E1BB044107A1BB07ED7
:100E63001BB044407A1BB0E47E34FEB67A1BB07EDE
:100E73001BB044037A1BB07E1BB0440C7A1BB07EBC
:100E83001BB044307A1BB07E1BB044C07A1BB074D5
:100E9300807E34FEFD7A1BB07E34FEE07E1BB044C0
:100EA300017A1BB0539B7FDAF8221B3468381B345A
:100EB30068561B3468711B347803020F490B36687C
:100EC30003020F8E4D227803C2EA22BE240001786A
:100ED30003D2EA22BE2400026803020F8E30EA0323
:100EE300C2EA22D2EA224D227803C2C222BE2400E1
:100EF300017803D2C222BE2400026803020F8E309F
:100F0300C203C2C222D2C2224D227803C2A222BE8F
:100F13002400017803D2A222BE240002786D30A2FD
:100F230003C2A222D2A2224D227803C2A322BE244C
:100F330000017803D2A322BE240002784E30A3031B
:100F4300C2A322D2A3224D227809C2EAC2C2C2A2FC
:100F5300C2A322BE2400017809D2EAD2C2D2A2D20D
:100F6300A322BE240002782330EA04C2EA8002D21C
:100F7300EA30C204C2C28002D2C230A204C2A2803A
:100F830002D2A230A303C2A322D2A3226D66900091
:100F9300F61BEA609000F81BEA609000FA1BEA6017
:100FA3006D771214F97E34000112174E7E142CBE95
:100FB3007E0400FF1219D87E3400021218AB7E148F
:100FC3002CBE7E0400FF1219EE12136B12182DE4CF
:100FD3007E70027E142CAD7E0400FF120A82E47E32
:100FE30070047E142C9D7E0400FF1212BB12106B42
:100FF3009000F60BEA300B341BEA309000F80BEA52
:10100300300B351BEA309000FA0BEA302E34000324
:101013001BEA300B762E6400059001001BEA607E0C
:101023003400069001021BEA307E3400079001046D
:101033001BEA307E3400089001061BEA309000F66C
:101043000BEA309000F80BEA209000FA0BEA107DCF
:1010530007120C527E3400017E240002120EAD7E74
:101063003400641219AA80887E74001412136B1260
:10107300182D74026C777E142C047E0400FF121268
:10108300BB7E3430D4120D856D33121689700ABEBF
:1010930074FCE008049E74001E7E3400021216895C
:1010A300700ABE74032058042E7400287E34000195
:1010B30012168970047E7400147D377D2712113F48
:1010C3009001321BEA707E1400FC7E0400017E3422
:1010D3002BF97E2400FF1200A6E47E70057E140027
:1010E300FC7E0400011212BB7E34F5C37E2440480B
:1010F300900130793E00021BEA207E1400FC7E043E
:1011030000017E342BEE7E2400FF1200A6E47E70E5
:10111300067E1400FC7E0400011212BB7E1400FC48
:101123007E0400011219D87E3400017E24000212CD
:101133000EAD7E3400C81219AA02108B7D027D43C6
:10114300BE440000582E6E44FFFF0B44439B80E4D3
:101153007E34FEF57E24007E7A1BB07E34FEF67A62
:101163001BB01A187E34FEF77A1B307E34FEF87AF1
:101173001B908026439B801A187E34FEF57E240044
:101183007E7A1B307E34FEF67A1B90E47E34FEF7C3
:101193007A1BB07E34FEF87A1BB0539B7FBE0400EB
:1011A30000582E6E04FFFF0B04439B80E47E34FE45
:1011B300F97E24007E7A1BB07E34FEFA7A1BB01AC5
:1011C300107E34FEFB7A1B307E34FEFC7A1B1080CB
:1011D30026439B801A107E34FEF97E24007E7A1B00
:1011E300307E34FEFA7A1B10E47E34FEFB7A1BB0A9
:1011F3007E34FEFC7A1BB0539B7F22CA3B7F319027
:1012030000D21BEA00791E0002743B7E700E7E142E
:1012130000E67E040001121A239000E7E07C0B6CC9
:10122300119000E8E00A1B4D109000D2693E0002C5
:101233000BEA201B1A109000E9E07C4B6C559000E0
:10124300EAE00A3B4D321B3A309000EBE07C0B9016
:1012530000ECE00A1B4D109000D6693E00020BEA39
:10126300201B1A109000EFE07C0B9000F0E00A1BAB
:101273004D109000DA693E00020BEA201B1A109011
:1012830000F1E07C0B9000F2E00A1B4D109000DEB1
:10129300693E00020BEA201B1A109000F3E07C0B5E
:1012A3009000F4E00A1B4D109000E2693E00020B2F
:1012B300EA201B1A10DA3B22CA3B7F3090010D7AD9
:1012C300EB7090010CF0E490010EF090010FF090A0
:1012D3000110F0807E900110E00A3B2D377D267EC1
:1012E3001B701A579E54002090010EF090010CE0E1
:1012F300BEB07E280BE490010CF090010DE004F0E9
:1013030090010CE090010D7EEB701218D0E4900177
:101313000FF090010EE00A3B6D227E1400061206C8
:10132300A490010FE00A1B6D002F102E2400FF2E46
:10133300181DBA7E1BB012188690010FE004F090BE
:10134300010FE0B406CC90010CE02406F0900110EC
:10135300E004F0900110E00A3B2D377D267E1BB0A0
:1013630060030212D8DA3B2275EE0075EF00D2EC6F
:10137300C2EA7E3400321219AAD2EA74AE1218619C
:10138300E4121861741012186174401218617481A8
:1013930012186174CF12186174A112186174C81203
:1013A300186174A612186174A8121861743F121898
:1013B3006174D3121861E412186174D51218617440
:1013C3008012186174D912186174F112186174DAF9
:1013D300121861741212186174DB121861744012CE
:1013E300186174201218617402121861748D121836
:1013F30061741412186174A412186174A61218612E
:1014030074AF12186112182DE46C770218D075842A
:10141300017E44041FE47A49B01B4478F97EF80046
:1014230062754B00754C3C7561007562017E04006A
:10143300FF7E142CD80B0A405D44681A6920000211
:101443000B0E0B44800A7E0BB07A29B00B240B0CD5
:101453001B4478F280DF7E0400FF7E1429120B0AFE
:10146300405D446822295000020A25693000032E9A
:101473000800050B44800A7E0BB07A1BB00B1C0BD3
:101483000C1B4478F280D7020F8F7C5B6D33A5BDB4
:10149300013030870EE5C97C4B6C55E5CA0A3B4DDC
:1014A300328012E5C97C4B6C55E5CA0A3B4D326E5E
:1014B30034FFFF0B3453DB7F75C90075CA0043DB70
:1014C3008022A5BD022F30850EE5CB7C4B6C55E504
:1014D300CC0A3B4D328012E5CB7C4B6C55E5CC0AF4
:1014E3003B4D326E34FFFF0B3453DBF775CB007586
:1014F300CC0043DB0822759200439B8075A900E46E
:101503007E34FE017E24007E7A1BB0539B7F43FF13
:101513001075F14075F20074407E34FE107A1BB0F2
:1015230075F30075F40075F90075FA0075FB007525
:10153300FC0075EC0075ED0075EE0075EF0075D2DB
:10154300FF75D30074FF7E34FE177A1BB0C2C0D27E
:10155300AF22CAF87F716D117E04C20C120086405F
:10156300146D117E04420C7F171200863807900019
:101573006CE0B401297EF0017E34000A6D22121161
:101583003F7E3405B9120066740190006CF06D3330
:101593009000981BEA3090006E1BEA3080026CFFCB
:1015A3007CBFDAF8227F707F617E1433337E04417F
:1015B300837F171200567E14D70A7E043BA31200C2
:1015C3001E7E0D0812000E7F7190006569BE000239
:1015D3000BEAA06D337E243F807F051200167F0740
:1015E30012001E7F717F157F0612001E7F071200F7
:1015F3000E7A1D0822CAB8CA1BC0D1C083C082E5B7
:10160300BC30E10553BCFDC200E5BC30E02853BC4F
:10161300FEE5BD9001350BEA307D230B241BEA2048
:101623002E3401387A71827A6183F09001350BEAA6
:10163300306C661BEA30D082D083D0D1DA1BDAB8A3
:1016430032CA0B691FFFFF690FFFFD120056121A02
:10165300477F717F1F2E34FFFD7E1BB030E7229F33
:10166300007F17120086380A7E140FDB7E04404980
:1016730080087E140FDB7E04C0497F1712000E7FA3
:10168300717F171BFE221B34681B1B34681C1B3421
:10169300681D1B3468271B3468282E3400057827FF
:1016A300A2F8E43322A2F9E43322A2FAE43322308B
:1016B300FB03740122A2FBE43368FAE422A2B2E43E
:1016C3003322A2B3E4332274FF227D437F70C2A28C
:1016D300D2A56CAA7E7BB0BEB0804003D38001C389
:1016E30092A4C2A53EB07A7BB0D2A5A2A3E4337C78
:1016F3007B7E7BB04CB77A7BB00BA0BEA00878D4BE
:101703000BF47D341B347D4378C8D2A222CA7BCA32
:101713006BCA5BCA4BCA2BCA1BCA0BC0D1C0D0C091
:1017230083C0829001A1E004F07E3400017E240096
:1017330002120EADD082D083D0D0D0D1DA0BDA1B17
:10174300DA2BDA4BDA5BDA6BDA7B32BE34000278FF
:101753000C4393017E18FFBF121936801BC28E53B0
:1017630093FE4393405389BF5389CF758DFF758B88
:10177300BFC2AB5395FDD28EE598543F4440F598D4
:10178300D2ACD29C539A3F22CA7BCA6BCA5BCA4B68
:10179300CA2BCA1BCA0BC0D1C0D0C083C0826D3351
:1017A3007E240002120EADD082D083D0D0D0D1DA05
:1017B3000BDA1BDA2BDA4BDA5BDA6BDA7B32CA7BB6
:1017C300CA6BCA5BCA4BCA2BCA1BCA0BC0D1C0D0D7
:1017D300C083C0826D337E240002120EADD082D04E
:1017E30083D0D0D0D1DA0BDA1BDA2BDA4BDA5BDA1F
:1017F3006BDA7B32CA7BCA6BCA5BCA4BCA2BCA1B66
:10180300CA0BC0D1C0D0C083C0826D337E24000216
:10181300120EADD082D083D0D0D0D1DA0BDA1BDA5E
:101823002BDA4BDA5BDA6BDA7B32CAD8CA796CFF14
:101833000A3F2E3400B07CB712186174011218618C
:1018430074101218616CDDE41218860BD0BED084BC
:1018530078F50BF0BEF00840D7DA79DAD8227C7B32
:101863007E6008C2E9C2EC80117CB730E704D2EB9A
:101873008002C2EBD2ECC2EC3E707CA61B604CAA89
:1018830078E7227C7B7E6008D2E9C2EC80117CB7CA
:1018930030E704D2EB8002C2EBD2ECC2EC3E707CA8
:1018A300A61B604CAA78E722BE340002780C7E188F
:1018B300FFBF12193675BC10800C75BC5075C9FF7B
:1018C30075CABF75DBA043E710439B0422CAF87CAB
:1018D300FB0A572E5400B01218617CBF54F0C45455
:1018E3000F44101218617CBF540F121861DAF822EA
:1018F3007E71F86E7002A2F8E4334C7B7EA1F86E21
:10190300A0084CA7BEA0077802E4227CBA64FF5467
:1019130007224D337803C2EA229001A70BEA200B7A
:10192300241BEA20BD23280AB2EA6D339001A71BCA
:10193300EA30225393EF5393F74393047CB6F5CDE8
:101943007F21F5CE53E7FB43931022CAB8C0D1C021
:1019530083C08290019EE004F0D082D083D0D1DA9C
:10196300B832CAB8C0D1C083C08290019FE004F0EE
:10197300D082D083D0D1DAB832CAB8C0D1C083C044
:10198300829001A0E004F0D082D083D0D1DAB832C3
:10199300CAB8C0D1C083C0829001A2E004F0D08253
:1019A300D083D0D1DAB8327D237E3413887D131BE4
:1019B300147D3178F87D121B147D2178EC227D2370
:1019C3007E3400047D131B147D3178F87D121B14C3
:1019D3007D2178EC22CA3B7F3080087E3BB00B74BC
:1019E3001200067E3BB070F3DA3B22CA3B7F3080A5
:1019F300087E3BB00B74121A317E3BB070F3DA3BB6
:101A0300227D23BE24000058056D339D32227D3292
:101A130022C0D1309802C298309902C299D0D132F3
:101A23007F7044807A7BB00A370B340216CD7C7BFF
:101A33002000FDD2007A71BD226D2212113F7E3546
:101A4300250200666D117E043F80758F3022A5EC60
:101A53006480A5FC22758F25A5EF227D32758F2822
:101A630022434E543A2530336420004C5120652DD7
:101A73006D6F746F726379636C6500B1B1BEA9C198
:101A8300FAC7F1D6C7C4DCBFC6BCBC0020202020E7
:101A9300FE000000FE8040201000101008047F00AC
:101AA30000003F40404070000808E828282A2C28FE
:101AB3002828E80808000020130A42427E02020A8E
:101AC3001320000000F090909090FE90909090F082
:101AD3000000000F040404043F44444444477000DE
:101AE300808282828282C2A2928A868280000000E1
:101AF300000040407F00000000000000404848F81C
:101B0300444420C41800FE0000000804037F0204BC
:101B1300020202027F0101001010FE10009090905B
:101B2300FE909010000042427F01404023140814AD
:101B33002340400004FC2424FC0400FC040404FCB3
:101B43000000101F11097F084033020202136000D6
:101B530010608000FE000000FE0080700000404026
:101B630043407F4040407F42414040007010929488
:101B730090929490989412107000040404044444C6
:101B83007E06050404040400FC04649C0018484811
:101B93004A4C484818007F0808074022120E0202E8
:101BA3003E42620020202020A07E20E0242820A0A6
:101BB30020004020100C2320103F4442414070007D
:101BC30000FC444444C24200FC0444B40C00101F13
:101BD3001010080F08007F0010100F0028A6643CA7
:101BE30064A420FC848484FC000001007E2A2A2A49
:101BF3002A2A2A2A7E000000109894929098300096
:101C03003E4848447400007F0A0A4A7F00003F446C
:101C1300444271001090FE901000FC040404FC0088
:101C2300000002017F0041300F0000003F407000C0
:101C3300809E9292929EC09E92B2D29E8000047C1D
:101C43004A4A49780078494A4A7C04000000000067
:101C530000807E80000000000000404020100C0344
:101C630000030C10204040004042CC00846C544CD4
:101C7300D444524E020040201F20425A52525F5217
:101C8300525A42001010FE100098482A0C082848A7
:101C9300980042427F01004042427E42424240005D
:101CA300809E9292929EC09E92B2D29E8000047CAD
:101CB3004A4A49780078494A4A7C04001010FE10C9
:101CC300504858EA4C685848400042427F01424A13
:101CD3002E13122A2642020000F80000FE004020C4
:101CE300DE1010F01000000702017F0040201708EB
:101CF3001621400000302C20A0702E202020242804
:101D0300200010084442412729112925434040005F
:101D13008084980080929490F09094928000402068
:101D23001F20405048464142445840001010FE10C6
:101D330000B88888EA8C8888B80042427F01004056
:101D430044271808142340002050CE4800C8B82068
:101D5300A8FEA8F8200002023F5228102F204A7F35
:101D63004A4A480000000080800000000000000094
:101D7300000000000019190000000000000000002E
:101D8300B1B1BEA9B5E7D7D3BFC6BCBCD6B0D2B537
:101D9300D1A7D4BAC1FAC7F1D6C7C4DCBBFAC6F718
:101DA300C8CBD2A3BFD8C6F7BDD3CAD5B7A2CBCDB4
:101DB300B0B4BCFCA3BA00000000000000000000A7
:101DC3002F000000000700070000147F147F140099
:101DD300242A7F2A120062640813230036495522FD
:101DE3005000000503000000001C224100000041D8
:101DF300221C000014083E08140008083E080800CE
:101E03000000A060000008080808080000606000E7
:101E130000002010080402003E5149453E000042E4
:101E23007F4000004261514946002141454B31004A
:101E33001814127F10002745454539003C4A49498B
:101E43003000017109050300364949493600064946
:101E530049291E00003636000000005636000000F7
:101E63000814224100001414141414000041221415
:101E73000800020151090600324959513E007C1203
:101E830011127C007F49494936003E4141412200FD
:101E93007F4141221C007F49494941007F090909CB
:101EA30001003E4149497A007F0808087F0000414C
:101EB3007F4100002040413F01007F081422410080
:101EC3007F40404040007F020C027F007F040810E7
:101ED3007F003E4141413E007F09090906003E4122
:101EE30051215E007F0919294600464949493100BD
:101EF30001017F0101003F4040403F001F2040207F
:101F03001F003F4038403F00631408146300070874
:101F130070080700615149454300007F41410000BB
:101F2300552A552A55000041417F00000402010251
:101F330004004040404040000001020400002054DF
:101F4300545478007F4844443800384444442000C3
:101F5300384444487F00385454541800087E09011B
:101F6300020018A4A4A47C007F08040478000044A1
:101F73007D4000004080847D00007F1028440000E5
:101F830000417F4000007C04180478007C080404AE
:101F93007800384444443800FC24242418001824CE
:101FA3002418FC007C0804040800485454542000FE
:101FB300043F444020003C4040207C001C20402043
:101FC3001C003C4030403C004428102844001CA026
:101FD300A0A07C004464544C44141414141414003E
:101FE30000000000000000000000000000000000EE
:101FF3000000F80000000000000033300000000083
:10200300100C06100C060000000000000000004049
:10201300C07840C0784000043F04043F040400003B
:102023007088FC08300000001820FF211E0000F01B
:1020330008F000E018000000211C031E211E000010
:10204300F00888700000001E212324192721101096
:10205300160E000000000000000000000000000059
:102063000000E018040200000000071820400000F0
:10207300020418E0000000004020180700000040A0
:102083004080F0804040000202010F010202000084
:102093000000F0000000000101011F010101000028
:1020A3000000000000000080B0700000000000008D
:1020B3000000000000000000010101010101010016
:1020C30000000000000000003030000000000000AD
:1020D3000000008060180400601806010000000082
:1020E300E010080810E000000F102020100F00007F
:1020F3001010F8000000000020203F202000000006
:10210300700808088870000030282422213000005D
:10211300300888884830000018202020110E000065
:1021230000C02010F8000000070424243F2400000E
:10213300F80888880808000019212020110E0000E3
:10214300E0108888180000000F112020110E0000F5
:10215300380808C83808000000003F0000000000ED
:1021630070880808887000001C222121221C0000AE
:10217300E010080810E0000000312222110F0000D7
:102183000000C0C00000000000003030000000006C
:1021930000008000000000000080600000000000DC
:1021A30000804020100800000102040810200040B5
:1021B3004040404040400004040404040404000080
:1021C30008102040800000002010080402010000D5
:1021D3007048080808F0000000003036010000C015
:1021E30030C828E810E0000718272423140B000048
:1021F30000C038E0000000203C23020227382008FA
:10220300F8888888700000203F202020110E00C02D
:102213003008080808380007182020201008000894
:10222300F808080810E000203F202020100F0008C5
:10223300F88888E8081000203F2020232018000891
:10224300F88888E8081000203F200003000000C041
:102253003008080838000007182020221E02000852
:10226300F808000008F808203F210101213F200061
:102273000808F8080800000020203F202000000084
:10228300000808F8080800C08080807F000000086C
:10229300F888C028180800203F20012638200008AD
:1022A300F8080000000000203F2020202030000814
:1022B300F8F800F8F80800203F003F003F2000082E
:1022C300F830C00008F808203F200007183F00E05E
:1022D3001008080810E0000F10202020100F00083D
:1022E300F808080808F000203F210101010000E080
:1022F3001008080810E0000F18242438504F000875
:10230300F8888888887000203F2000030C30200064
:10231300708808080838000038202121221C001882
:102323000808F8080818000000203F2000000008F3
:10233300F808000008F808001F202020201F0008CC
:1023430078880000C83808000007380E010000F83C
:102353000800F80008F800033C0700073C030008E6
:102363001868808068180820302C03032C3020085C
:1023730038C800C83808000000203F2000000010C3
:10238300080808C838080020382621202018000033
:102393000000FE020202000000007F4040400000F7
:1023A3000C30C000000000000000010638C000002F
:1023B300020202FE000000004040407F00000000D7
:1023C30000040202020400000000000000000000FC
:1023D30000000000000000808080808080808000FA
:1023E30002020400000000000000000000000000E2
:1023F300008080808000000019242222223F2008D0
:10240300F8008080000000003F112020110E000022
:1024130000008080800000000E11202020110000A9
:102423000000808088F800000E112020103F20005B
:1024330000808080800000001F22222222130000DF
:102443008080F0888888180020203F20200000002A
:1024530000808080808000006B94949493600008D7
:10246300F8008080800000203F210000203F2000F2
:10247300809898000000000020203F2020000000EA
:102483000000809898000000C08080807F000008D2
:10249300F8000080808000203F24022D30200000BF
:1024A3000808F8000000000020203F2020000080E2
:1024B30080808080808000203F20003F20003F807C
:1024C30080008080800000203F210000203F20000A
:1024D30000808080800000001F202020201F0080BB
:1024E3008000808000000080FFA12020110E0000EA
:1024F30000008080808000000E112020A0FF8080DB
:102503008080008080800020203F21200001000087
:10251300008080808080000033242424241900005C
:102523008080E0808000000000001F2020000080E9
:1025330080000000808000001F202020103F2080AA
:102543008080000080808000010E3008060100803A
:10255300800080008080800F300C030C300F00005F
:10256300808000808080000020312E0E312000808A
:102573008080000080808080818E701806010000BA
:10258300808080808080000021302C222130000058
:10259300000000807C020200000000003F40400079
:1025A300000000FF00000000000000FF000000002A
:1025B30002027C800000000040403F000000000059
:1025C30006010102020404000000000000000000F4
:1025D30000000000000000000000000000000000F8
:1025E30000000000000000000000000000000000E8
:1025F3000000000000000000003F3F3F3F3FC0C01D
:10260300C0C0C00000000000000000000000000087
:1026130000000000000000000000000000000000B7
:1026230000000000000000000000000000000000A7
:1026330000000000000000000080C0E0E0F0F0F0C7
:10264300F00000000000F0F0F0F0F0F0F0F0F0F037
:10265300F0F0F0F0F0F0F0F0F0F0F0F0F0F0F0F077
:10266300F0F0F0F0F0F007070707070000000000A4
:102673000000000000E0F0F0F0000000000060E067
:10268300E0C0000000000000C0E0E0E060606060C7
:102693007070303000E0E0E0E02060E0E0E040F027
:1026A300FEFFFFFFFFFFFFFFFF0000000000FFFF33
:1026B300FFFFFFFFFFFFFF1F1F1F1F1F1F1F1F1F07
:1026C3001F1F1F1F1F1F1F1F1F1FFFFFFFFFFEFED9
:1026D300FEFEFE0000000606060606C6FEFFFF1FFE
:1026E300070606FEFEFE06060686C6660600000010
:1026F300FFFFFFFF3030F0F0F0F0303000FFFFFF5E
:10270300FF4078FFFFFF80FFFFFFFFFFFFFFFFFF9B
:10271300FF0000000000FFFFFFFFFFFFFFFFFF00C0
:1027230000000000000000000000000000000000A6
:102733000000FFFFFFFFFFFFFFFFFF00000000009F
:10274300C0F0FEFF3F0780C0C06070FFFFFF0E07B1
:102753000301000000000000FFFFFFFF0000FFFF78
:10276300FFFF000000FFFFFFFF0000FFFFFFFFFF71
:10277300FFFFFFFFFFFFFFFFFF0000000000FFFF61
:10278300FFFFFFFFFFFFFF0000000000000000004D
:1027930000000000000000000080FFFFFFFFFFFFBC
:1027A300FFFFFF000000040F0F07030000030101F8
:1027B300000000070F0F0E0C0C0C0C0C0C00000497
:1027C30007070707060203030303030300070F0FAB
:1027D30007030303030100FFFFFFFFFFFFFFFFFFEB
:1027E300FF0000000000FFFFFFFFFFFFFFFFFFFFF1
:1027F300FFFFFFFFFFFFFFFFFFFFFFFFFFFFFFFFE6
:10280300FFFFFFFFFFFFFFFFFFFFFF00000042424C
:1028130042FEFEFFE743434100061E3E3C3000FFFD
:10282300FFFFFF000000004040FFFFFFFF400008E4
:102833000808080808FFFFFFFF0808080808087FC2
:10284300FFFFFFFFFFFFFFFFFFC0C0C0C0C0C1C14C
:10285300C1C1C1C1C1C1C1C1C1C1C1C1C1C1C1C165
:10286300C1C1C1C1010101010101FFFFFFFFFFFF61
:10287300FFFFFF000000FFFF00FFFFFF00FEFF0060
:1028830000030F1F1E1800FFFFFFFF808000008062
:1028930080FFFFFFFF400000021A7AFAF2E383830E
:1028A300C3F2FE7E3E0E0000070F1F3F3F7F7F7F78
:1028B3007F7F7F7F7F7F7F7F7F7F7F7F7F7F7F7F25
:1028C3007F7F7F7F7F7F7F7F7F7F7F7F0000000011
:1028D30000007F7F7F3F3F1F0F07000000007F7FC7
:1028E300007F7F7F003F7F00000301010101017F23
:1028F3007F7F7F0000000040607F7F7F3F000000FC
:10290300406070787D3F1F1F3F7F787060400000FC
:10291300040101A30000000000020101780000008F
:102923000201017A0000000801017E00000000009E
:10293300000000000801018E01F401F40000000012
:102943000004010008000000000010010014000052
:102953000000000000000000000000000000000470
:1029630001002800000000001001002C3F8000003F
:1029730000000000000000003F8000000004010090
:10298300403A83126F00040100443F00000000013D
:102993000100500100040100513BA3D70A000401C8
:1029A300005D0000000000040100613B449BA600A1
:1029B300040100653C23D70A0001010069000002FD
:1029C30001006A0064000101006C01000201006E55
:1029D300000000040100763E23D70A000401007AB8
:1029E3003D4CCCCD00040100863F80000000040173
:1029F300008A3DCCCCCD000401008E3A83126F00D7
:102A03000401009241EC0000000201009800000064
:102A13000401009A3FF3333300010100A0010004D5
:102A23000100A13F6147AE00040100A73F4CCCCD9C
:102A330000040100AB0000000000004C3A253034D4
:102A43006420523A2530346420563A2530336420CA
:102A530000783A2530346420793A25303464207A7A
:102A63003A253034642000416E673A253033642EB2
:102A7300256420202042503A25303464200025303C
:102A830032642E253032645620202530336420539F
:102A9300503A2530346420005365723A253034644B
:102AA300206D6F743A253034642000456E633A25F7
:102AB3003034642020202052756E2000456E633A26
:102AC300253034642020202053746F70200025307B
:102AD3002E32662020253033642020307825303292
:102AE30058004C5120652D6D6F746F726379636C60
:102AF300650074696D657230206F6B004B4559300A
:102B03002631263221004B4559312632212020001F
:102B13004B4559302632212020004B455930263170
:102B2300212020004B4559322120202020004B45F5
:102B330059312120202020004B45593021202020CD
:102B430020004B455920507265737365643A202009
:102B5300004C6F6E672051697520692E732E742E99
:102B630000B1B1BEA9C1FAC7F1D6C7C4DCBFC6BCA8
:102B7300BC00677A3A253036640067793A253036E7
:102B8300640067783A2530366400617A3A25303636
:102B9300640061793A253036640061783A2530362D
:102BA3006400616E676C653A2566004C51323036BD
:102BB30038394D204661696C004C51323036383912
:102BC3004D20546573740049443A307825303258A7
:102BD30000536572766F3A2530356420004C5120DE
:102BE300536572766F20546573740050574D3A20C5
:102BF300252E32663B0050574D3A20253035643B35
:102C0300004C51204D6F746F7220546573740058DB
:102C13003A00000000000000000000000000004136
:102C230044333A2530346420004144323A25303469
:102C33006420004144313A2530346420004144305B
:102C43003A2530346420004C6F6E6720516975203B
:102C5300692E732E742E00B1B1BEA9C1FAC7F1D685
:102C6300C7C4DCBFC6BCBC00456E63323A20253006
:102C7300346420200050574D3A20253035643B0002
:102C8300456E63313A202530346420200054657347
:102C93007420456E636F646572004C6F6E672051DC
:102CA300697520692E732E742E00B1B1BEA9C1FAC5
:102CB300C7F1D6C7C4DCBFC6BCBC00756172743132
:102CC3002E2E2E0A0D00494E54335F636E743A253F
:0F2CD30030336420000004004D3C23D70A00007A
:00000001FF
