:100000000211DE02184B7AB199223202075D758F18
:020010001C22B0
:07001300021862758F1D2227
:07001B00021599758F1E22EA
:10002300021938740B12169E90015A1BEA30740A97
:1000330012169E90015C1BEA30740912169E900101
:100043005E1BEA30740812169E9001601BEA302290
:07005300021879758F1F22CE
:07005B0002151E758F202223
:1000630002000AC2A5D2A412196B12196B12196BE2
:0E007300D2A512196B12196B12196BC2A522BD
:0F008300021890758F21A5EF540FA2E064082298
:070093000213C5758F2F2237
:06009B000215CF0219015D
:1000A3000216057F707F517EC400007ED400007E5F
:1000B3009400B90200F34005E47A7BB0227A7BB066
:1000C3000B7C22540F2490D43440D430F30CBEB0B4
:1000D300414007BEB05B500224204CCC68021BC0D9
:1000E3000B84D389944CCC680B74201200DD80F50B
:1000F300CA3B6D889F337CAE7E5BB00B5C7007C3DD
:100103007D38DA3B8994B42569C2F37E5BB00B5C1E
:10011300A5F824D0BEB00A501B7E500A20F60DACC1
:100123005CA52D7CCB70034EF00180DDAC5DA52D6D
:100133007CDB80D524CFBEB01AA5E850055E00DF76
:10014300D2F39004C8A3E4936011BCB078F774179A
:10015300934CAB30F6B34EF08080AEA3E4936010C3
:10016300BCB078F77416937C3B7423937C2B89146F
:100173007CB0801374201200DD20F205BEC0025053
:10018300F31B6D29B600011200DD0200E81B6E6946
:100193001600020B6A00BE08000078087E0400FF08
:1001A3007E14199820F21E4CCC681A7F10E47E1B33
:1001B300804C8868070B1C04BCBD78F2C2F6CA0BDE
:1001C3001202C7DA0B7E0BB060C0CA0B1200DDDA75
:1001D3000B0B0C4CDD68EE1BD078EA80ADD2F07EC1
:1001E300101080037E10085EB05F800AD2F67E1086
:1001F3000A80057E100AC2F66D119F117E00201B36
:100203006C7E6B7030F6021A3720F1051B6C7E6B27
:100213006030F6041A261A2430F0051B6D0B6A2091
:10022300A5EC3382F692F6500A7CEA9F229F217F47
:10023300127CAE4C44780F7C457C567C676C772EE1
:1002430000F878EF80122F117CB3337C3B9CB140D4
:10025300047C3B0B70A5D8EE7CB230E005DAB8C461
:100263004C3BCA380B207E00207E3000BE180000B5
:1002730078C1BE1008780730F404C2F480B5CA28E8
:100283007CB2BCBD38027CBD1202C7DA28BC2D503B
:100293000A1BD0E4CA281200C680F07CB213DAB875
:1002A3004004C4CAB8C4CA28BEF08040095CDD78E3
:1002B30005A5DA0260065EF07F1200C6DA28A5DA29
:1002C300DA0200E8BEF001680F30F402240220F5E0
:1002D3000620F70330F6010420F229BCBC5025CADE
:1002E300B87CBF13B0E67420501174307C8A5E80F2
:1002F300F068081203075EA00F80031200DDDAB86E
:10030300BCBC78DB30F40F74301200DD745830F36A
:100313000274781200DD30F605742D0200DD742BB3
:1003230020F5F8742020F7F3221B6C7E6BB010F1DC
:10033300021B6C20F60B30E704F404D2F27CCB8072
:100343000520E7057CDB02010C5EF07F80F81B6E65
:10035300691600020B6A0030F0076D221B0A200B9E
:100363000D1B0A800200F7E46C22BE3007500B7F9E
:100373001F2D312E34FFF77E39B0227CBF20E7A832
:10038300742E4EF0800200DD1204B1403D7CBD703E
:1003930003047CDB1205C87C3D4C3368101B307CA6
:1003A300BE20E40912036A70044C3378F07CBD7CF0
:1003B300D3BEA0FD481CBCAB5818E49CBA2CB318A0
:1003C30001E47CDB0204521204B1406E7CBD0412D2
:1003D30005C87AFBA07CAE7CBDA2F492F0C2F440C7
:1003E3000260010424051202C77E30FF0B301203A2
:1003F3006ACA381200C620F0044CDD680312037E7B
:10040300DA38BC3D78E6740E1200C6742B7EFBA06E
:1004130030F707742D6EA0FF0BA07AFBA01200DD4E
:100423007EA00A7EFBB0847AFBA01200C67EFBB0DE
:100433001200C69EF800080200E8D2F27ED0000245
:1004430001A71204B140F37CBA2CBD041205C87A8B
:10045300FBA07CBA7CAE30E701E40420F4044CDD5D
:100463006805D2F0C2F4042CBD1202C76C337EFBC4
:10047300B0601B20E712147AFBB012036ACA381269
:1004830000C6DA380B3080E6047AFBB01B30120367
:100493006ACA381200C64CDD680712037E1BD0807F
:1004A300E19EF8000930F00312037E0200E87CEAC3
:1004B3007CAF10F7037ED0067CFA1B6E6936000210
:1004C3000B6A200205102D2B204C4248232E00538B
:1004D300584F44494355502A4E464547000420800F
:1004E300010200104090E2E7EFEF7CF6E02C51456B
:1004F300CA8B010101010101010103030403034E3E
:10050300614E002B494E46002D494E46007D522D2B
:10051300557CBE92E67CEB7CBA601F0470287CB5E8
:10052300C2E77E0400FF60067E140502D3227E1418
:10053300050B40047E140506D322DA099F22CA2B39
:10054300CA2BC3CA09220A0A7E144D10AD109E0895
:100553003AF09E10267CB5C2E77EA0567C9BA46E23
:1005630054FFFF2E54C511ACA92D15E4A539CAB803
:10057300CA1B20E70A12063BDA1B120056800AF454
:100583000412063BDA1B12001EDAA87CB5337CB4D6
:10059300334E50806C4424822F111478FBDA497453
:1005A30007BE400A40099E400ACA0201140BA0CAB2
:1005B300486C442F117F012F112F112F101478EF46
:1005C300CA48CA49227F0F20E73ABEB007400274E7
:1005D300070A0B2D109E1400097E19B02EB0FB5094
:1005E3001F4C116817E47A19B01B147E19B0047AF2
:1005F30019B0B40A0BE47A19B0A5D9ED0BA07401B4
:100603007A19B0225EE0BF223F8000004120000043
:1006130042C80000447A0000461C400047C3500013
:10062300497424004B1896804CBEBC205A0E1BCA3A
:100633006753C21C749DC5AE7C7B60065407681665
:1006430023231206607CB75438680A7F1012065DB4
:1006530012001E7F01227CB7543803241C6CAA2E7F
:1006630054060B7E4400FF0B2A006912000222C2CB
:10067300D57CB430E708B2D56E24FFFF0B247CB6DB
:1006830030E712B2D56E34FFFF0B348D326E24FF88
:10069300FF0B2480028D3230D5066E34FFFF0B34FE
:1006A300227D02AD31AD102D21226D0074104D005D
:1006B300780B4D2278278D317D126D22227D437D6B
:1006C300326D222F112D445002A50FBF1040049FFD
:1006D300100B901478ED7F016D227D34227D417DD6
:1006E300138D247D022F004004BD0440049D040BA0
:1006F300141478F17D237D317D106D0022C2D57CE9
:10070300B030E708B2D59F229F207F027CB430E748
:1007130013B2D59F229F217F121206AF9F229F20E3
:100723007F0280031206AF30D5069F229F217F12DE
:10073300226CAABE08000068201E540B5450167E7B
:100743001B807A0B800B1C0B0C800A0B1A401B0AB4
:10075300400B1D0B0D1B5478F222CA7BCA6BCA5B7C
:10076300CA4BCA3BCA2BCA1BCA0BC0D1C0D0C08359
:10077300C0827E18002D90011A793E00021BEA20E8
:100783007E18003B90011E793E00021BEA207E1872
:10079300003D900122793E00021BEA207E18003FB3
:1007A300900126793E00021BEA207E0800297E186C
:1007B300002B120F40740112125A1219287A35496C
:1007C3001216CA7E25297CB41219927F017E252D2B
:1007D3007CB41219921214116D117E044334120069
:1007E3001E7E140FDB7E044049120056CA1B7E2571
:1007F3003D7CB41219927F01DA1B1213757E0D082A
:100803006D337E2442B41200167A1D5D7E0D4D12A7
:1008130000167F716D117E043F80120086280974D3
:100823000190006DF0E4801B6D117E04BF807F1783
:100833001200865009E490006DF074018005E49085
:10084300006DF09000B3F090009A691E00020BEA6D
:10085300007F1712001E7A1D517F031200167F01BD
:100863007A1D597E1D2112000E7A1D216DDD7EC475
:10087300C4617E5D217F157F061200865002800FC2
:100883006DDD7EC444617F157F0612008628037ADE
:100893006D217E0D2190008E693E00020BEA20122D
:1008A300001E7F617E0D59900092693E00020BEAA3
:1008B3002012001E7F0612000E7F617E0D557E1DE5
:1008C3005912001690008A691E00020BEA001200FA
:1008D3001E7F0612000E7F317E1D597A1D557A3D0B
:1008E300419F007F17120086283E7E140FDB7E0493
:1008F30040497F1712001E6D117E044334120056C7
:100903001200966D117E04447512001E90008669D4
:100913001E00020BEA001200167F717E0D517E3419
:10092300999A7E24BE9980597E0D4D7E1D5D1200DD
:10093300169F00120086507B7E0D4D7E1D5D1200BA
:100943001612197F7E140FDB7E04404912001E6DC0
:10095300117E0443341200561200966D117E044436
:100963007512001E900086691E00020BEA00120039
:10097300167F717E1D5112197F7E14999A7E04BED3
:100983009912001E7E14A8F67E0442F412000E7F14
:100993000712001E12005E900076691E00020BEA29
:1009A3000012001E6D117E0441F012000E12198612
:1009B3007A354B7E354BBE34001E58097E24001E0B
:1009C3007A254B800DBE34009608077E3400967A54
:1009D300354B7E1420007E0444B77E1D4112000E69
:1009E3001219867A3525BE34050F58067E34050F55
:1009F300800D7E3525BE34066308077E3406637A90
:100A030035257E1D5D9001500BEA101213227049AB
:100A13007E05499E054B7A056190006A0BEA207DAD
:100A2300323E347E14000FAD102D3190006A2E2516
:100A3300611BEA20BE3407D008067E3407D0800A43
:100A4300BE34E89058047E34E8909E3400467A35EC
:100A5300276D339E3527121960900069E004F07EFC
:100A630034000A1217A9D082D083D0D0D0D1DA0BA8
:100A7300DA1BDA2BDA3BDA4BDA5BDA6BDA7B32CA74
:100A83003B7F309001417AEB70900140F0E490019C
:100A930042F0900143F07E3400019001441BEA30A0
:100AA300020C3DE4900142F07E3400019001441BAE
:100AB300EA308052900142E00A3B6D227F012E040E
:100AC30000FF2E081CBB7E0BA0900143E00A1B2DE8
:100AD300177D067E0BB0BCAB78252E2400FF2E18A5
:100AE3001CBC7E1B6029700001BC67781290014218
:100AF3007EEB70740EACB79001441BEA50801F90DC
:100B03000142E00BB1F0900142E00A3B6D222E243A
:100B130000FF2E181CBB7E1B70BE707F38969001A1
:100B230040E0BEB076280BE4900140F0900141E034
:100B330004F0900140E09001417EEB701217649045
:100B430001440BEA30BE3400017803020BDB900151
:100B530040E09001417EEB70121764E4900142F093
:100B63009001440BEA306D222E2400FF2E1819C782
:100B73007E1BB012171A9001440BEA300B341BEAA8
:100B830030900142E004F0900142E0B40ED29001B3
:100B930041E00A3B0B349001467AEB70900140E050
:100BA300121764E4900142F09001440BEA306D2285
:100BB3002E2400FF2E1819C77E1BB012171A90019E
:100BC300440BEA300B341BEA30900142E004F0900E
:100BD3000142E0B40ED28054900143E004F090014E
:100BE30040E09001417EEB70121764E4900142F003
:100BF300E412171A900142E004F0900142E0B410AD
:100C0300EF900141E00A3B0B349001467AEB709080
:100C13000140E0121764E4900142F0E412171A90C5
:100C23000142E004F0900142E0B410EF900140E093
:100C3300240EF0900143E00BB1F0900143E00A3B36
:100C43002D377D267E1BB06003020AA6DA3B22CA3B
:100C53003B7D707D619001421BEA209001401BEABD
:100C63003075BDAA7E34005A1218BE75BDAA7E34F3
:100C7300005A1218BE75BDF17E34005A1218BE75A3
:100C8300BD0F7E34005A1218BE9001400BEA300AA1
:100C930056F5BD7E34005A1218BE9001400BEA503F
:100CA300F5BD7E34005A1218BE9001420BEA300A99
:100CB30056F5BD7E34005A1218BE9001420BEA501D
:100CC300F5BD7E34005A1218BE0A5CF5BD7E3400B1
:100CD3005A1218BE7CBDF5BD7E34005A1218BE0AE6
:100CE3005EF5BD7E34005A1218BE7CBFF5BD7E345E
:100CF300005A1218BE9001440BEA300A56F5BD7E25
:100D030034005A1218BE9001440BEA50F5BD7E34EC
:100D1300005A1218BE9001460BEA300A56F5BD7E02
:100D230034005A1218BE9001460BEA50F5BD7E34CA
:100D3300005A1218BE9001480BEA300A56F5BD7EE0
:100D430034005A1218BE9001480BEA50F5BD7E34A8
:100D5300005A1218BE90014A0BEA300A56F5BD7EBE
:100D630034005A1218BE90014A0BEA50F5BD7E3486
:100D7300005A1218BE75BDFB7E34005A1218BEDA33
:100D83003B221B3468381B3468561B3468711B3490
:100D93007803020E210B366803020E664D22780398
:100DA300C2EA22BE2400017803D2EA22BE24000252
:100DB3006803020E6630EA03C2EA22D2EA224D2217
:100DC3007803C2C222BE2400017803D2C222BE2409
:100DD30000026803020E6630C203C2C222D2C222DC
:100DE3004D227803C2A222BE2400017803D2A2229C
:100DF300BE240002786D30A203C2A222D2A2224DE9
:100E0300227803C2A322BE2400017803D2A322BE08
:100E1300240002784E30A303C2A322D2A3224D2280
:100E23007809C2EAC2C2C2A2C2A322BE24000178C8
:100E330009D2EAD2C2D2A2D2A322BE2400027823CC
:100E430030EA04C2EA8002D2EA30C204C2C280029B
:100E5300D2C230A204C2A28002D2A230A303C2A390
:100E630022D2A3226D6690013A1BEA6090013C1BDB
:100E7300EA6090013E1BEA606D771212C67E340071
:100E83000112155C7E142BF67E0400FF1218D57E2A
:100E930034000212173F7E142BF67E0400FF121853
:100EA300EB1210AD12163BE47E70027E142BE57E2E
:100EB3000400FF120A82E47E70047E142BD57E04A4
:100EC30000FF120FFD90013A0BEA300B341BEA309E
:100ED30090013C0BEA300B351BEA3090013E0BEAE4
:100EE300302E3400031BEA300B762E64000590018C
:100EF300441BEA607E3400069001461BEA307E34D0
:100F030000079001481BEA307E34000890014A1B19
:100F1300EA3090013A0BEA3090013C0BEA20900151
:100F23003E0BEA107D07120C527E3400017E240032
:100F330002120D857E3400641218A78088CA3B7F95
:100F4300319001161BEA00791E0002743B7E700E7D
:100F53007E14012A7E04000112194790012BE07CC4
:100F63000B6C1190012CE00A1B4D10900116693E89
:100F730000020BEA201B1A1090012DE07C4B6C55EC
:100F830090012EE00A3B4D321B3A3090012FE07C5A
:100F93000B900130E00A1B4D1090011A693E0002CC
:100FA3000BEA201B1A10900133E07C0B900134E014
:100FB3000A1B4D1090011E693E00020BEA201B1A0A
:100FC30010900135E07C0B900136E00A1B4D109028
:100FD3000122693E00020BEA201B1A10900137E040
:100FE3007C0B900138E00A1B4D10900126693E00EE
:100FF300020BEA201B1A10DA3B22CA3B7F30900116
:10100300417AEB70900140F0E4900142F09001438B
:10101300F0900144F0807E900144E00A3B2D377D3F
:10102300267E1B701A579E540020900142F09001B7
:1010330040E0BEB07E280BE4900140F0900141E017
:1010430004F0900140E09001417EEB70121764E4DC
:10105300900143F0900142E00A3B6D227E140006AA
:101063001206A4900143E00A1B6D002F102E2400EA
:10107300FF2E181CF27E1BB012171A900143E004D6
:10108300F0900143E0B406CC900140E02406F090D8
:101093000144E004F0900144E00A3B2D377D267EB5
:1010A3001BB0600302101ADA3B2275EE0075EF00E5
:1010B300D2ECC2EA7E3400321218A7D2EA74AE121E
:1010C30016F5E41216F574101216F574401216F59F
:1010D30074811216F574CF1216F574A11216F574F5
:1010E300C81216F574A61216F574A81216F5743FF5
:1010F3001216F574D31216F5E41216F574D51216FA
:10110300F574801216F574D91216F574F11216F5EA
:1011130074DA1216F574121216F574DB1216F574DE
:10112300401216F574201216F574021216F5748D1A
:101133001216F574141216F574A41216F574A61289
:1011430016F574AF1216F512163BE46C77021764AA
:101153007D027D53BE54000058216E54FFFF0B5493
:10116300439B801A1A7E34FEF57E24007E7A1B3060
:101173007E34FEF67A1BB0D2FD8019439B801A1A87
:101183007E34FEF57E24007E7A1B307E34FEF67AB2
:101193001BB0C2FD539B7FBE04000058216E04FFA9
:1011A300FF0B04439B801A107E34FEF97E24007EDD
:1011B3007A1B307E34FEFA7A1B10D2FF8019439BD0
:1011C300801A107E34FEF97E24007E7A1B307E3432
:1011D300FEFA7A1B10C2FF539B7F227584017E4463
:1011E300041FE47A49B01B4478F97EF80062754B1A
:1011F30000754C3C7561007562017E0400FF7E142E
:101203002C100B0A405D44681A692000020B0E0B78
:1012130044800A7E0BB07A29B00B240B0C1B447854
:10122300F280DF7E0400FF7E14284A0B0A405D44EF
:101233006822295000020A25693000032E080005A0
:101243000B44800A7E0BB07A1BB00B1C0B0C1B44A7
:1012530078F280D7020E677C5B6D33A5BD01303019
:10126300870EE5C97C4B6C55E5CA0A3B4D328012AB
:10127300E5C97C4B6C55E5CA0A3B4D326E34FFFF22
:101283000B3453DB7F75C90075CA0043DB8022A58D
:10129300BD022F30850EE5CB7C4B6C55E5CC0A3B6C
:1012A3004D328012E5CB7C4B6C55E5CC0A3B4D327D
:1012B3006E34FFFF0B3453DBF775CB0075CC004363
:1012C300DB0822759200439B8075A900E47E34FEFF
:1012D300017E24007E7A1BB0539B7F43FF1075F180
:1012E3004075F20074407E34FE107A1BB075F30033
:1012F30075F40075F90075FA0075FB0075FC00754F
:10130300EC0075ED0075EE0075EF0075D2FF75D337
:101313000074FF7E34FE177A1BB0C2C0D2AF22CA5C
:10132300F87F716D117E04C20C12008640146D119A
:101333007E04420C7F17120086380790006CE0B4DD
:1013430001297EF0017E34000A6D221211537E348E
:1013530005B91217E5740190006CF06D3390009895
:101363001BEA3090006E1BEA3080026CFF7CBFDA10
:10137300F8227F707F617E1433337E0441837F17AD
:101383001200567E14D70A7E043BA312001E7E0D64
:101393000812000E7F7190006569BE00020BEAA07F
:1013A3006D337E243F807F051200167F0712001ED7
:1013B3007F717F157F0612001E7F0712000E7A1DB4
:1013C3000822CAB8CA1BC0D1C083C082E5BC30E1C1
:1013D3000553BCFDC200E5BC30E02853BCFEE5BDAF
:1013E3009000D30BEA307D230B241BEA202E34001C
:1013F300D67A71827A6183F09000D30BEA306C66FF
:101403001BEA30D082D083D0D1DA1BDAB832CA0BD0
:10141300691FFFFF690FFFFD1200561219757F71D7
:101423007F1F2E34FFFD7E1BB030E7229F007F1706
:10143300120086380A7E140FDB7E04404980087E42
:10144300140FDB7E04C0497F1712000E7F717F17D4
:101453001BFE221B34681B1B34681C1B34681D1BBA
:101463003468271B3468282E3400057827A2F8E453
:101473003322A2F9E43322A2FAE4332230FB0374C9
:101483000122A2FBE43368FAE422A2B2E43322A2EB
:10149300B3E4332274FF227D437F70C2A2D2A56CD2
:1014A300AA7E7BB0BEB0804003D38001C392A4C2A6
:1014B300A53EB07A7BB0D2A5A2A3E4337C7B7E7B2E
:1014C300B04CB77A7BB00BA0BEA00878D40BF47DE8
:1014D300341B347D4378C8D2A222BE3400BC4005FD
:1014E3007EA001802FBE34006240057EA0028024CE
:1014F300BE34002A40057EA0038019BE3400144088
:10150300057EA004800EBE34000A40057EA005803F
:10151300037EA006741A7C7A02181ACA7BCA6BCAA5
:101523005BCA4BCA2BCA1BCA0BC0D1C0D0C083C075
:1015330082900175E004F07E3400017E24000212E3
:101543000D85D082D083D0D0D0D1DA0BDA1BDA2B41
:10155300DA4BDA5BDA6BDA7B32BE340002780C43A7
:1015630093017E18FFBF121833801BC28E5393FE64
:101573004393405389BF5389CF758DFF758BBFC28A
:10158300AB5395FDD28EE598543F4440F598D2ACC9
:10159300D29C539A3F22CA7BCA6BCA5BCA4BCA2BE3
:1015A300CA1BCA0BC0D1C0D0C083C0826D337E2496
:1015B3000002120D85D082D083D0D0D0D1DA0BDADD
:1015C3001BDA2BDA4BDA5BDA6BDA7B32CA7BCA6B58
:1015D300CA5BCA4BCA2BCA1BCA0BC0D1C0D0C083BB
:1015E300C0826D337E240002120D85D082D083D059
:1015F300D0D0D1DA0BDA1BDA2BDA4BDA5BDA6BDA1F
:101603007B32CA7BCA6BCA5BCA4BCA2BCA1BCA0BC7
:10161300C0D1C0D0C083C0826D337E240002120DBE
:1016230085D082D083D0D0D0D1DA0BDA1BDA2BDA93
:101633004BDA5BDA6BDA7B32CAD8CA796CFF0A3FC2
:101643002E3400B07CB71216F574011216F574101F
:101653001216F56CDDE412171A0BD0BED08478F5A0
:101663000BF0BEF00840D7DA79DAD822CA797D7355
:10167300BE7403E828047E7403E8BE7400045004B7
:101683007E7400047E3403E88D371B3474191218FA
:101693001A7D371E341214DDDA792275DD0075DE0A
:1016A300007EA1DC5EA0F04EA0404CBAF5DC000049
:1016B3000000E5DC30E5FB53DCDFE5DD7C4B6C55FE
:1016C300E5DE0A3B4D32227E3400031214567010BD
:1016D30090006CE0700474018001E490006CF022CF
:1016E300121787B4050B7E1D5D7A1D4DE49000969D
:1016F300F0227C7B7E6008C2E9C2EC80117CB730AB
:10170300E704D2EB8002C2EBD2ECC2EC3E707CA6C3
:101713001B604CAA78E7227C7B7E6008D2E9C2EC8E
:1017230080117CB730E704D2EB8002C2EBD2ECC26B
:10173300EC3E707CA61B604CAA78E722BE34000204
:10174300780C7E18FFBF12183375BC10800C75BC63
:101753005075C9FF75CABF75DBA043E710439B04EF
:1017630022CAF87CFB0A572E5400B01216F57CBF30
:1017730054F0C4540F44101216F57CBF540F1216C4
:10178300F5DAF8227E71F86E7002A2F8E4334C7B2E
:101793007EA1F86EA0084CA7BEA0077802E4227CC5
:1017A300BA64FF5407224D337803C2EA2290017BC7
:1017B3000BEA200B241BEA20BD23280AB2EA6D336F
:1017C30090017B1BEA3022C2A5C2A412196B121925
:1017D3006B12196BD2A512196B12196B12196BC20A
:1017E300A5227D03439B807E34FEDB7E24007E7A2C
:1017F3001B007E34FEDC7A1B10539B7F22448090B7
:10180300017FF07E14017F7E0400017E340002120A
:10181300149A900180E02290017DF090017E7AEB92
:10182300707E14017D7E0400017E34000202149A4E
:101833005393EF5393F74393047CB6F5CD7F21F590
:10184300CE53E7FB43931022CAB8C0D1C083C082F2
:10185300900172E004F0D082D083D0D1DAB832CADA
:10186300B8C0D1C083C082900173E004F0D082D0AD
:1018730083D0D1DAB832CAB8C0D1C083C082900154
:1018830074E004F0D082D083D0D1DAB832CAB8C0C1
:10189300D1C083C082900176E004F0D082D083D09F
:1018A300D1DAB8327D237E3413887D131B147D3146
:1018B30078F87D121B147D2178EC227D237E340081
:1018C300047D131B147D3178F87D121B147D217860
:1018D300EC22CA3B7F3080087E3BB00B74120006BB
:1018E3007E3BB070F3DA3B22CA3B7F3080087E3BFD
:1018F300B00B741219557E3BB070F3DA3B2275F5C9
:101903000075F600743C7E34FE127E24007E7A1B42
:10191300B0227CAB741CCAB87CBAC40354F87C7B79
:10192300DAB802181A7D23BE24000058056D339DD2
:1019330032227D3222C0D1309802C298309902C23D
:1019430099D0D1327F7044807A7BB00A370B34024E
:10195300149A7C7B2000FDD2007A71BD226D221285
:1019630011537E35250217E56CAA0BA0BEA01E40BD
:10197300F9226D117E043F80758F3022A5EC6480BF
:10198300A5FC22758F25A5EF227C74758F27227DF8
:1019930032758F282228302900434E543A2530339C
:1019A3006420004C5120652D6D6F746F72637963F1
:1019B3006C6500B1B1BEA9C1FAC7F1D6C7C4DCBF1B
:1019C300C6BCBC0020202020FE000000FE8040207A
:1019D3001000101008047F0000003F4040407000DA
:1019E3000808E828282A2C282828E80808000020C6
:1019F300130A42427E02020A1320000000F0909074
:101A03009090FE90909090F00000000F0404040466
:101A13003F44444444477000808282828282C2A24F
:101A2300928A868280000000000040407F00000010
:101A330000000000404848F8444420C41800FE0059
:101A430000000804037F0204020202027F01010076
:101A53001010FE1000909090FE90901000004242F3
:101A63007F014040231408142340400004FC242435
:101A7300FC0400FC040404FC0000101F11097F088F
:101A8300403302020213600010608000FE00000079
:101A9300FE0080700000404043407F4040407F4252
:101AA3004140400070109294909294909894121038
:101AB30070000404040444447E0605040404040082
:101AC300FC04649C001848484A4C484818007F08A6
:101AD30008074022120E02023E426200202020200C
:101AE300A07E20E0242820A020004020100C2320EA
:101AF300103F44424140700000FC444444C2420051
:101B0300FC0444B40C00101F1010080F08007F00E1
:101B130010100F0028A6643C64A420FC848484FC79
:101B2300000001007E2A2A2A2A2A2A2A7E0000008F
:101B330010989492909830003E4848447400007F77
:101B43000A0A4A7F00003F44444271001090FE900D
:101B53001000FC040404FC00000002017F0041307B
:101B63000F0000003F407000809E9292929EC09EA4
:101B730092B2D29E8000047C4A4A49780078494A4E
:101B83004A7C04000000000000807E80000000000A
:101B93000000404020100C0300030C1020404000C4
:101BA3004042CC00846C544CD444524E020040203A
:101BB3001F20425A52525F52525A42001010FE10D6
:101BC3000098482A0C082848980042427F010040A8
:101BD30042427E4242424000809E9292929EC09E2A
:101BE30092B2D29E8000047C4A4A49780078494ADE
:101BF3004A7C04001010FE10504858EA4C685848BC
:101C0300400042427F01424A2E13122A264202001A
:101C130000F80000FE004020DE1010F01000000766
:101C230002017F00402017081621400000302C20BD
:101C3300A0702E2020202428200010084442412791
:101C43002911292543404000808498008092949074
:101C5300F0909492800040201F204050484641421B
:101C6300445840001010FE1000B88888EA8C888819
:101C7300B80042427F010040442718081423400063
:101C83002050CE4800C8B820A8FEA8F820000202C1
:101C93003F5228102F204A7F4A4A48000000008004
:101CA300800000000000000000000000001919007F
:101CB3000000000000000000B1B1BEA9B5E7D7D312
:101CC300BFC6BCBCD6B0D2B5D1A7D4BAC1FAC7F18E
:101CD300D6C7C4DCBBFAC6F7C8CBD2A3BFD8C6F7F6
:101CE300BDD3CAD5B7A2CBCDB0B4BCFCA3BA000058
:101CF30000000000000000002F00000000070007A4
:101D03000000147F147F1400242A7F2A12006264C7
:101D13000813230036495522500000050300000034
:101D2300001C224100000041221C000014083E0850
:101D3300140008083E0808000000A060000008081E
:101D4300080808000060600000002010080402007A
:101D53003E5149453E0000427F40000042615149E7
:101D630046002141454B31001814127F10002745CE
:101D7300454539003C4A49493000017109050300D2
:101D8300364949493600064949291E0000363600BE
:101D9300000000563600000008142241000014140D
:101DA3001414140000412214080002015109060012
:101DB300324959513E007C1211127C007F49494936
:101DC30036003E41414122007F4141221C007F49B0
:101DD300494941007F09090901003E4149497A0007
:101DE3007F0808087F0000417F4100002040413FF9
:101DF30001007F08142241007F40404040007F02E1
:101E03000C027F007F0408107F003E4141413E00E9
:101E13007F09090906003E4151215E007F09192906
:101E2300460046494949310001017F0101003F4015
:101E330040403F001F2040201F003F4038403F00EC
:101E430063140814630007087008070061514945CB
:101E53004300007F41410000552A552A55000041A7
:101E6300417F000004020102040040404040400062
:101E73000001020400002054545478007F48444475
:101E83003800384444442000384444487F003854E0
:101E930054541800087E0901020018A4A4A47C006D
:101EA3007F080404780000447D4000004080847D66
:101EB30000007F102844000000417F4000007C04A4
:101EC300180478007C08040478003844444438003B
:101ED300FC242424180018242418FC007C0804047F
:101EE3000800485454542000043F444020003C4020
:101EF30040207C001C2040201C003C4030403C0023
:101F03004428102844001CA0A0A07C004464544C26
:101F13004414141414141400000000000000000002
:101F230000000000000000000000F80000000000B6
:101F33000000333000000000100C06100C060000F7
:101F43000000000000000040C07840C0784000045A
:101F53003F04043F040400007088FC0830000000C4
:101F63001820FF211E0000F008F000E01800000018
:101F7300211C031E211E0000F00888700000001EB3
:101F83002123241927211010160E00000000000041
:101F930000000000000000000000E0180402000040
:101FA3000000071820400000020418E000000000B1
:101FB30040201807000000404080F08040400002AD
:101FC30002010F01020200000000F0000000000106
:101FD30001011F010101000000000000000000805A
:101FE300B0700000000000000000000000000000CE
:101FF30001010101010101000000000000000000D7
:102003003030000000000000000000806018040071
:102013006018060100000000E010080810E000004E
:102023000F102020100F00001010F8000000000017
:1020330020203F202000000070080808887000005E
:1020430030282422213000003008888848300000DE
:1020530018202020110E000000C02010F8000000FE
:10206300070424243F240000F80888880808000097
:1020730019212020110E0000E010888818000000AC
:102083000F112020110E0000380808C8380800007E
:1020930000003F00000000007088080888700000FE
:1020A3001C222121221C0000E010080810E000007F
:1020B30000312222110F00000000C0C00000000008
:1020C300000030300000000000008000000000002D
:1020D3000080600000000000008040201008000025
:1020E30001020408102000404040404040400004EA
:1020F30004040404040400000810204080000000CD
:1021030020100804020100007048080808F00000CD
:1021130000003036010000C030C828E810E0000796
:1021230018272423140B000000C038E0000000200F
:102133003C23020227382008F88888887000002092
:102143003F202020110E00C030080808083800077F
:102153001820202010080008F808080810E00020C4
:102163003F202020100F0008F88888E8081000207E
:102173003F20202320180008F88888E80810002052
:102183003F200003000000C03008080838000007A3
:10219300182020221E020008F808000008F8082072
:1021A3003F210101213F20000808F8080800000032
:1021B30020203F2020000000000808F8080800C085
:1021C3008080807F00000008F888C028180800205D
:1021D3003F20012638200008F808000000000020F6
:1021E3003F20202020300008F8F800F8F8080020ED
:1021F3003F003F003F200008F830C00008F80820E7
:102203003F200007183F00E01008080810E0000F07
:1022130010202020100F0008F808080808F00020FC
:102223003F210101010000E01008080810E0000F41
:1022330018242438504F0008F888888888700020B4
:102243003F2000030C302000708808080838000085
:1022530038202121221C00180808F808081800005B
:1022630000203F2000000008F808000008F80800DC
:102273001F202020201F000878880000C83808008D
:102283000007380E010000F80800F80008F8000302
:102293003C0700073C030008186880806818082082
:1022A300302C03032C30200838C800C8380800003D
:1022B30000203F2000000010080808C8380800204C
:1022C30038262120201800000000FE020202000030
:1022D30000007F40404000000C30C00000000000C0
:1022E3000000010638C00000020202FE00000000E8
:1022F3004040407F0000000000040202020400008E
:10230300000000000000000000000000000000804A
:102313008080808080808000020204000000000032
:1023230000000000000000000080808080000000AA
:1023330019242222223F2008F80080800000000098
:102343003F112020110E000000008080800000005B
:102353000E112020201100000000808088F800006A
:102363000E112020103F200000808080800000009C
:102373001F222222221300008080F0888888180000
:1023830020203F202000000000808080808000000B
:102393006B94949493600008F80080808000002080
:1023A3003F210000203F200080989800000000009B
:1023B30020203F20200000000000809898000000AB
:1023C300C08080807F000008F800008080800020AB
:1023D3003F24022D302000000808F8000000000010
:1023E30020203F202000008080808080808000208B
:1023F3003F20003F20003F8080008080800000203D
:102403003F210000203F20000080808080000000EA
:102413001F202020201F008080008080000000807B
:10242300FFA12020110E00000000808080800000AA
:102433000E112020A0FF80808080008080800020FB
:10244300203F212000010000008080808080000068
:1024530033242424241900008080E08080000000BD
:1024630000001F202000008080000000808000000A
:102473001F202020103F208080800000808080006B
:10248300010E300806010080800080008080800FEC
:10249300300C030C300F000080800080808000002F
:1024A30020312E0E312000808080000080808080CB
:1024B300818E70180601000080808080808000007B
:1024C30021302C2221300000000000807C02020019
:1024D300000000003F404000000000FF000000003B
:1024E300000000FF0000000002027C8000000000EA
:1024F30040403F0000000000060101020204040006
:1025030000000000000000000000000000000000C8
:1025130000000000000000000000000000000000B8
:1025230000000000000000000000000000000000A8
:10253300003F3F3F3F3FC0C0C0C0C000000000009D
:102543000000000000000000000000000000000088
:102553000000000000000000000000000000000078
:102563000000000000000000000000000000000068
:102573000080C0E0E0F0F0F0F00000000000F0F0B8
:10258300F0F0F0F0F0F0F0F0F0F0F0F0F0F0F0F048
:10259300F0F0F0F0F0F0F0F0F0F0F0F0F0F007070A
:1025A30007070700000000000000000000E0F0F053
:1025B300F0000000000060E0E0C000000000000048
:1025C300C0E0E0E0606060607070303000E0E0E048
:1025D300E02060E0E0E040F0FEFFFFFFFFFFFFFFD1
:1025E300FF0000000000FFFFFFFFFFFFFFFFFF1FD3
:1025F3001F1F1F1F1F1F1F1F1F1F1F1F1F1F1F1FE8
:102603001F1FFFFFFFFFFEFEFEFEFE00000006068B
:10261300060606C6FEFFFF1F070606FEFEFE0606AB
:102623000686C66606000000FFFFFFFF3030F0F0AD
:10263300F0F0303000FFFFFFFF4078FFFFFF80FF27
:10264300FFFFFFFFFFFFFFFFFF0000000000FFFF92
:10265300FFFFFFFFFFFFFF0000000000000000007E
:1026630000000000000000000000FFFFFFFFFFFF6D
:10267300FFFFFF0000000000C0F0FEFF3F0780C027
:10268300C06070FFFFFF0E070301000000000000A1
:10269300FFFFFFFF0000FFFFFFFF000000FFFFFF42
:1026A300FF0000FFFFFFFFFFFFFFFFFFFFFFFFFF35
:1026B300FF0000000000FFFFFFFFFFFFFFFFFF0021
:1026C3000000000000000000000000000000000007
:1026D3000080FFFFFFFFFFFFFFFFFF000000040F6D
:1026E3000F07030000030101000000070F0F0E0C8A
:1026F3000C0C0C0C0C00000407070707060203036D
:102703000303030300070F0F07030303030100FF82
:10271300FFFFFFFFFFFFFFFFFF0000000000FFFFC1
:10272300FFFFFFFFFFFFFFFFFFFFFFFFFFFFFFFFB6
:10273300FFFFFFFFFFFFFFFFFFFFFFFFFFFFFFFFA6
:10274300FFFFFF000000424242FEFEFFE74343411A
:1027530000061E3E3C3000FFFFFFFF00000000406C
:1027630040FFFFFFFF4000080808080808FFFFFFBD
:10277300FF0808080808087FFFFFFFFFFFFFFFFFB0
:10278300FFC0C0C0C0C0C1C1C1C1C1C1C1C1C1C1FD
:10279300C1C1C1C1C1C1C1C1C1C1C1C10101010126
:1027A3000101FFFFFFFFFFFFFFFFFF000000FFFF2F
:1027B30000FFFFFF00FEFF0000030F1F1E1800FFB6
:1027C300FFFFFF808000008080FFFFFFFF400000CD
:1027D300021A7AFAF2E38383C3F2FE7E3E0E00000E
:1027E300070F1F3F3F7F7F7F7F7F7F7F7F7F7F7FBE
:1027F3007F7F7F7F7F7F7F7F7F7F7F7F7F7F7F7FE6
:102803007F7F7F7F0000000000007F7F7F3F3F1FAF
:102813000F07000000007F7F007F7F7F003F7F0066
:10282300000301010101017F7F7F7F000000004061
:10283300607F7F7F3F000000406070787D3F1F1FF7
:102843003F7F7870604000000401017700000000C2
:10285300000201014C0000000201014E00000008CB
:1028630001015200000000000000000008010162A5
:1028730001F401F40000000000040100080000005E
:102883000000100100140000000000000000000020
:102893000000000000000004010028000000000008
:1028A3001001002C3F800000000000000000000029
:1028B3003F80000000040100403A83126F000401CE
:1028C30000443F000000000101005001000401002A
:1028D300513BA3D70A000401005D0000000000047F
:1028E3000100613B449BA600040100653C23D70A19
:1028F300000101006900000201006A006400010197
:10290300006C01000201006E000000040100763E2D
:1029130023D70A000401007A3D4CCCCD000401000A
:10292300863F800000000401008A3DCCCCCD00042A
:1029330001008E3A83126F000401009241EC000003
:1029430000020100980000000401009A3FF33333B2
:1029530000010100A00100040100A13F6147AE0096
:10296300040100A73F4CCCCD00040100AB000000E4
:102973000000004C3A2530346420523A2530346448
:1029830020563A253033642000783A2530346420C9
:10299300793A25303464207A3A2530346420004172
:1029A3006E673A253033642E256420202042503A46
:1029B300253034642000253032642E2530326456AD
:1029C3002020253033642053503A253034642000CE
:1029D3005365723A25303464206D6F743A25303470
:1029E300642000456E633A25303464202020205251
:1029F300756E2000456E633A253034642020202014
:102A030053746F70200025302E326620202530331A
:102A1300642020307825303258004C5120652D6DCC
:102A23006F746F726379636C650074696D6572307E
:102A3300206F6B004B4559302631263221004B4520
:102A430059312632212020004B455930263221208E
:102A530020004B4559302631212020004B45593267
:102A63002120202020004B45593121202020200007
:102A73004B4559302120202020004B4559205072CE
:102A830065737365643A2020004C6F6E672051694B
:102A93007520692E732E742E00B1B1BEA9C1FAC779
:102AA300F1D6C7C4DCBFC6BCBC00677A3A25303652
:102AB300640067793A253036640067783A25303602
:102AC3006400617A3A253036640061793A253036FC
:102AD300640061783A2530366400616E676C653A4C
:102AE3002566004C5132303638394D204661696CC9
:102AF300004C5132303638394D20546573740049D7
:102B0300443A30782530325800536572766F3A254F
:102B130030356420004C5120536572766F20546524
:102B230073740050574D3A20252E32663B005057A0
:102B33004D3A20253035643B004C51204D6F746F66
:102B430072205465737400583A00000000000000BE
:102B5300000000000000004144333A253034642073
:102B6300004144323A2530346420004144313A254F
:102B730030346420004144303A2530346420004C22
:102B83006F6E672051697520692E732E742E00B104
:102B9300B1BEA9C1FAC7F1D6C7C4DCBFC6BCBC006D
:102BA300456E63323A202530346420200050574D5F
:102BB3003A20253035643B00456E63313A20253099
:102BC30034642020005465737420456E636F64651C
:102BD30072004C6F6E672051697520692E732E74D5
:102BE3002E00B1B1BEA9C1FAC7F1D6C7C4DCBFC6B6
:102BF300BCBC0075617274312E2E2E0A0D00494E35
:102C030054335F636E743A2530336420000004004C
:072C13004D3C23D70A00002D
:00000001FF
