:100000000210E50214A37C7B2000FDD2007A71BDB2
:0A0010002232320214BA7AB19922AA
:07001B00020012758F1C2288
:10002300021579740B1213309000981BEA30740A8E
:1000330012133090009A1BEA3074091213309000A7
:100043009C1BEA30740812133090009E1BEA302286
:070053000214D1758F1D227C
:07005B000211B2758F1E2295
:10006300020011C2A5C2A4120086120086120086E5
:10007300D2A5120086120086120086D2A402008640
:0D0083000214E86CAA0BA0BEA01E40F922DA
:07009300021099283029003A
:03009B00021260EE
:1000A3000212967F707F517EC400007ED400007ED2
:1000B3009400B90200F34005E47A7BB0227A7BB066
:1000C3000B7C22540F2490D43440D430F30CBEB0B4
:1000D300414007BEB05B500224204CCC68021BC0D9
:1000E3000B84D389944CCC680B74201200DD80F50B
:1000F300CA3B6D889F337CAE7E5BB00B5C7007C3DD
:100103007D38DA3B8994B42569C2F37E5BB00B5C1E
:10011300A5F824D0BEB00A501B7E500A20F60DACC1
:100123005CA52D7CCB70034EF00180DDAC5DA52D6D
:100133007CDB80D524CFBEB01AA5E850055E00DF76
:10014300D2F39004C8A3E4936011BCB078F774179A
:10015300934CAB30F6B34EF08080AEA3E4936010C3
:10016300BCB078F77416937C3B7423937C2B89146F
:100173007CB0801374201200DD20F205BEC0025053
:10018300F31B6D29B600011200DD0200E81B6E6946
:100193001600020B6A00BE08000078087E0400FF08
:1001A3007E14009620F21E4CCC681A7F10E47E1B4E
:1001B300804C8868070B1C04BCBD78F2C2F6CA0BDE
:1001C3001202C7DA0B7E0BB060C0CA0B1200DDDA75
:1001D3000B0B0C4CDD68EE1BD078EA80ADD2F07EC1
:1001E300101080037E10085EB05F800AD2F67E1086
:1001F3000A80057E100AC2F66D119F117E00201B36
:100203006C7E6B7030F6021A3720F1051B6C7E6B27
:100213006030F6041A261A2430F0051B6D0B6A2091
:10022300A5EC3382F692F6500A7CEA9F229F217F47
:10023300127CAE4C44780F7C457C567C676C772EE1
:1002430000F878EF80122F117CB3337C3B9CB140D4
:10025300047C3B0B70A5D8EE7CB230E005DAB8C461
:100263004C3BCA380B207E00207E3000BE180000B5
:1002730078C1BE1008780730F404C2F480B5CA28E8
:100283007CB2BCBD38027CBD1202C7DA28BC2D503B
:100293000A1BD0E4CA281200C680F07CB213DAB875
:1002A3004004C4CAB8C4CA28BEF08040095CDD78E3
:1002B30005A5DA0260065EF07F1200C6DA28A5DA29
:1002C300DA0200E8BEF001680F30F402240220F5E0
:1002D3000620F70330F6010420F229BCBC5025CADE
:1002E300B87CBF13B0E67420501174307C8A5E80F2
:1002F300F068081203075EA00F80031200DDDAB86E
:10030300BCBC78DB30F40F74301200DD745830F36A
:100313000274781200DD30F605742D0200DD742BB3
:1003230020F5F8742020F7F3221B6C7E6BB010F1DC
:10033300021B6C20F60B30E704F404D2F27CCB8072
:100343000520E7057CDB02010C5EF07F80F81B6E65
:10035300691600020B6A0030F0076D221B0A200B9E
:100363000D1B0A800200F7E46C22BE3007500B7F9E
:100373001F2D312E34FFF77E39B0227CBF20E7A832
:10038300742E4EF0800200DD1204B1403D7CBD703E
:1003930003047CDB1205C87C3D4C3368101B307CA6
:1003A300BE20E40912036A70044C3378F07CBD7CF0
:1003B300D3BEA0FD481CBCAB5818E49CBA2CB318A0
:1003C30001E47CDB0204521204B1406E7CBD0412D2
:1003D30005C87AFBA07CAE7CBDA2F492F0C2F440C7
:1003E3000260010424051202C77E30FF0B301203A2
:1003F3006ACA381200C620F0044CDD680312037E7B
:10040300DA38BC3D78E6740E1200C6742B7EFBA06E
:1004130030F707742D6EA0FF0BA07AFBA01200DD4E
:100423007EA00A7EFBB0847AFBA01200C67EFBB0DE
:100433001200C69EF800080200E8D2F27ED0000245
:1004430001A71204B140F37CBA2CBD041205C87A8B
:10045300FBA07CBA7CAE30E701E40420F4044CDD5D
:100463006805D2F0C2F4042CBD1202C76C337EFBC4
:10047300B0601B20E712147AFBB012036ACA381269
:1004830000C6DA380B3080E6047AFBB01B30120367
:100493006ACA381200C64CDD680712037E1BD0807F
:1004A300E19EF8000930F00312037E0200E87CEAC3
:1004B3007CAF10F7037ED0067CFA1B6E6936000210
:1004C3000B6A200205102D2B204C4248232E00538B
:1004D300584F44494355502A4E464547000420800F
:1004E300010200104090E2E7EFEF7CF6E02C51456B
:1004F300CA8B010101010101010103030403034E3E
:10050300614E002B494E46002D494E46007D522D2B
:10051300557CBE92E67CEB7CBA601F0470287CB5E8
:10052300C2E77E0400FF60067E140502D3227E1418
:10053300050B40047E140506D322DA099F22CA2B39
:10054300CA2BC3CA09220A0A7E144D10AD109E0895
:100553003AF09E10267CB5C2E77EA0567C9BA46E23
:1005630054FFFF2E54C511ACA92D15E4A539CAB803
:10057300CA1B20E70A12063BDA1B120000800AF4AA
:100583000412063BDA1B12005EDAA87CB5337CB496
:10059300334E50806C4424822F111478FBDA497453
:1005A30007BE400A40099E400ACA0201140BA0CAB2
:1005B300486C442F117F012F112F112F101478EF46
:1005C300CA48CA49227F0F20E73ABEB007400274E7
:1005D300070A0B2D109E1400097E19B02EB0FB5094
:1005E3001F4C116817E47A19B01B147E19B0047AF2
:1005F30019B0B40A0BE47A19B0A5D9ED0BA07401B4
:100603007A19B0225EE0BF223F8000004120000043
:1006130042C80000447A0000461C400047C3500013
:10062300497424004B1896804CBEBC205A0E1BCA3A
:100633006753C21C749DC5AE7C7B60065407681665
:1006430023231206607CB75438680A7F1012065DB4
:1006530012005E7F01227CB7543803241C6CAA2E3F
:1006630054060B7E4400FF0B2A006912000222C2CB
:10067300D57CB430E708B2D56E24FFFF0B247CB6DB
:1006830030E712B2D56E34FFFF0B348D326E24FF88
:10069300FF0B2480028D3230D5066E34FFFF0B34FE
:1006A300227D02AD31AD102D21226D0074104D005D
:1006B300780B4D2278278D317D126D22227D437D6B
:1006C300326D222F112D445002A50FBF1040049FFD
:1006D300100B901478ED7F016D227D34227D417DD6
:1006E300138D247D022F004004BD0440049D040BA0
:1006F300141478F17D237D317D106D0022C2D57CE9
:10070300B030E708B2D59F229F207F027CB430E748
:1007130013B2D59F229F217F121206AF9F229F20E3
:100723007F0280031206AF30D5069F229F217F12DE
:10073300226CAABE08000068201E540B5450167E7B
:100743001B807A0B800B1C0B0C800A0B1A401B0AB4
:10075300400B1D0B0D1B5478F222CA3B7F309000D7
:10076300BD7AEB709000BCF0E49000BEF09000BF47
:10077300F07E3400019000C01BEA30020918E490B7
:1007830000BEF07E3400019000C01BEA308052901E
:1007930000BEE00A3B6D227F012E0400FF2E0818E5
:1007A300C87E0BA09000BFE00A1B2D177D067E0BB1
:1007B300B0BCAB78252E2400FF2E1818C97E1B6011
:1007C30029700001BC6778129000BE7EEB70740E36
:1007D300ACB79000C01BEA50801F9000BEE00BB185
:1007E300F09000BEE00A3B6D222E2400FF2E181865
:1007F300C87E1B70BE707F38969000BCE0BEB0769A
:10080300280BE49000BCF09000BDE004F09000BC25
:10081300E09000BD7EEB701213F69000C00BEA303F
:10082300BE34000178030208B69000BCE09000BD1E
:100833007EEB701213F6E49000BEF09000C00BEA5A
:10084300306D222E2400FF2E1815D47E1BB01213F8
:10085300D19000C00BEA300B341BEA309000BEE0AD
:1008630004F09000BEE0B40ED29000BDE00A3B0B52
:10087300349000C27AEB709000BCE01213F6E4905F
:1008830000BEF09000C00BEA306D222E2400FF2E34
:100893001815D47E1BB01213D19000C00BEA300B95
:1008A300341BEA309000BEE004F09000BEE0B40ECA
:1008B300D280549000BFE004F09000BCE09000BDF3
:1008C3007EEB701213F6E49000BEF0E41213D190A5
:1008D30000BEE004F09000BEE0B410EF9000BDE075
:1008E3000A3B0B349000C27AEB709000BCE0121309
:1008F300F6E49000BEF0E41213D19000BEE004F0E1
:100903009000BEE0B410EF9000BCE0240EF0900025
:10091300BFE00BB1F09000BFE00A3B2D377D267E90
:100923001BB06003020781DA3B22CA3B7F30900091
:10093300C47AEB709000C3F0E49000C5F09000C659
:10094300F09000C7F0020A179000C7E00A3B2D376A
:100953007D267E1B701A579E5400209000C5F09090
:1009630000C3E0BEB078280BE49000C3F09000C44D
:10097300E004F09000C3E09000C47EEB701213F625
:10098300E49000C6F09000C5E00A1B6D0074042FCC
:10099300001478FB9000C6E00A3B6D222F102E2432
:1009A30000FF2E181B277E1BB01213D19000C6E048
:1009B30004F09000C6E0B408CC9000C4E00A3B0BFE
:1009C300349000C87AEB709000C3E01213F6E49001
:1009D30000C6F09000C5E00A1B6D0074042F0014DC
:1009E30078FB9000C6E00A3B6D222F102E2400FFF7
:1009F3002E181B2F7E1BB01213D19000C6E004F0FB
:100A03009000C6E0B408CC9000C3E02408F0900046
:100A1300C7E004F09000C7E00A3B2D377D267E1B1C
:100A2300B0600302094BDA3B22CAF87DF3439B8093
:100A330074027E34FEF17E24007E7A1BB0E47E14C1
:100A4300FEEC7E04007E7A0BB07E34FEED7A1BB0A2
:100A53007EF0607E54FEE87E44007E7A2BF07E5466
:100A6300FEE97A2BF07E54FEEA7A2BF07E54FEEBFD
:100A73007A2BF074557A0BB07A1BB07D1F6D007E14
:100A83003496807E2400981207007E14FEF27E04C2
:100A9300007E7A0B607C377E34FEF37E24007E7A00
:100AA3001B3074647E34FEF57A1BB074C87E34FE4A
:100AB300F67A1BB074647E34FEF97A1BB074C87E78
:100AC30034FEFA7A1BB0E47E34FEB57A1BB07E1B8B
:100AD300B044017A1BB07E1BB044107A1BB0E47E95
:100AE30034FEB67A1BB07E1BB044037A1BB07E1B68
:100AF300B044307A1BB074807E34FEFD7A1BB07E26
:100B030034FEE07E1BB044017A1BB075D20075D36E
:100B1300A07E34FE177E1BB044A07A1BB0539B7F8C
:100B2300DAF8221B3468381B3468561B3468711B8F
:100B3300347803020BC20B366803020C074D22788C
:100B430003C2C222BE2400017803D2C222BE240003
:100B5300026803020C0730C203C2C222D2C2224D72
:100B6300227803C2C222BE2400017803D2C222BE6D
:100B73002400026803020C0730C203C2C222D2C29D
:100B8300224D227803C2A222BE2400017803D2A2FE
:100B930022BE240002786D30A203C2A222D2A22276
:100BA3004D227803C2A322BE2400017803D2A322DC
:100BB300BE240002784E30A303C2A322D2A3224D47
:100BC300227809C2C2C2C2C2A2C2A322BE240001A9
:100BD3007809D2C2D2C2D2A2D2A322BE2400027802
:100BE3002330C204C2C28002D2C230C204C2C28055
:100BF30002D2C230A204C2A28002D2A230A303C294
:100C0300A322D2A322CA3B7F309000CF7AEB70900D
:100C130000CEF0E49000D0F09000D1F09000D2F03C
:100C2300807E9000D2E00A3B2D377D267E1B701A12
:100C3300579E5400209000D0F09000CEE0BEB07ECE
:100C4300280BE49000CEF09000CFE004F09000CEAB
:100C5300E09000CF7EEB701213F6E49000D1F09099
:100C630000D0E00A3B6D227E1400061206A4900019
:100C7300D1E00A1B6D002F102E2400FF2E1818FF41
:100C83007E1BB01213D19000D1E004F09000D1E0AC
:100C9300B406CC9000CEE02406F09000D2E004F03D
:100CA3009000D2E00A3B2D377D267E1BB060030205
:100CB3000C25DA3B2275EE0075EF00D2ECC2EA7E1A
:100CC30034003212152DD2EA74AE1213ACE41213AF
:100CD300AC74101213AC74401213AC74811213ACC5
:100CE30074CF1213AC74A11213AC74C81213AC7486
:100CF300A61213AC74A81213AC743F1213AC74D3C2
:100D03001213ACE41213AC74D51213AC7480121327
:100D1300AC74D91213AC74F11213AC74DA1213ACB1
:100D230074121213AC74DB1213AC74401213AC7450
:100D3300201213AC74021213AC748D1213AC74141E
:100D43001213AC74A41213AC74A61213AC74AF12C6
:100D530013AC1212CCE46C770213F67DF3439B8041
:100D6300741D7E34FED17E24007E7A1BB0E47E3473
:100D7300FECD7A1BB074607E14FECB7E04007E7AB7
:100D83000BB074557A1BB07D1F6D007E3442407EDC
:100D930024000F1207007E14FED27E04007E7A0B1D
:100DA300607C377E34FED37E24007E7A1B3074054C
:100DB3007E34FEDB7A1BB074B97E34FEDC7A1BB062
:100DC3007E34FEB17E1BB044807A1BB07E14FEB22B
:100DD3007E0B707A0B7074807E34FEDD7A1BB07EDE
:100DE30034FEC07E1BB044017A1BB0539B7F227D2F
:100DF300027D53BE54000058216E54FFFF0B544331
:100E03009B801A1A7E34FEF57E24007E7A1B307E88
:100E130034FEF67A1BB0D2FD8019439B801A1A7EEA
:100E230034FEF57E24007E7A1B307E34FEF67A1B78
:100E3300B0C2FD539B7FBE04000058216E04FFFF28
:100E43000B04439B801A107E34FEF97E24007E7AC5
:100E53001B307E34FEFA7A1B10D2FF8019439B802D
:100E63001A107E34FEF97E24007E7A1B307E34FE17
:100E7300FA7A1B10C2FF539B7F2212103D12158872
:100E83007E3430D4120A2C7E340064120D5E90003E
:100E9300460BEA30121470120CB81212CCE46C77C1
:100EA3007E1425E47E0400FF120C087E1400167ED7
:100EB300040001120EF712135C7E3404B012152DD8
:100EC3006D33CA3990000A0BEA207CB41215A37E55
:100ED3001433337E043F3312005E12159D7D23DAF3
:100EE30039120DF21212297E14000C7E0400011235
:100EF300117080F07F207E34D70A7E243DA379329F
:100F030000021B2A209F1179320006792200047EF9
:100F130034D70A7E243DA37932000A792200089F40
:100F2300117932000E7922000C79320012792200F5
:100F33001079320016792200147932001A792200CE
:100F4300187932001E7922001C793200227922009E
:100F53002079320026792200247932002A7922006E
:100F6300287932002E7922002C227C5B6D33A5BDBB
:100F7300013030870EE5C97C4B6C55E5CA0A3B4D01
:100F8300328012E5C97C4B6C55E5CA0A3B4D326E83
:100F930034FFFF0B3453DB7F75C90075CA0043DB95
:100FA3008022A5BD022F30850EE5CB7C4B6C55E529
:100FB300CC0A3B4D328012E5CB7C4B6C55E5CC0A19
:100FC3003B4D326E34FFFF0B3453DBF775CB0075AB
:100FD300CC0043DB08227F617F70693700020B7A04
:100FE300207F0612005E79370012792700106917F7
:100FF3000026690700247F161200566917000A6944
:1010030007000812005E7937001A7927001879D78C
:10101300002679C700246917001A69070018693781
:1010230000126927001012001E7937001E7927006D
:101033001C6937001E6927001C22759200439B80A0
:1010430075A900E47E34FE017E24007E7A1BB05332
:101053009B7F43FF1075F14075F20074407E34FEB0
:10106300107A1BB075F30075F40075F90075FA007A
:1010730075FB0075FC0075EC0075ED0075EE0075F1
:10108300EF0075D2FF75D30074FF7E34FE177A1B11
:10109300B0C2C0D2AF22CAB8CA1BC0D1C083C082FB
:1010A300E5BC30E10553BCFDC200E5BC30E028538C
:1010B300BCFEE5BD90004F0BEA307D230B241BEAF9
:1010C300202E3400527A71827A6183F090004F0BA4
:1010D300EA306C661BEA30D082D083D0D1DA1BDAD7
:1010E300B8327584017E44041FE47A49B01B447806
:1010F300F97EF800207E0400FF7E1424CD0B0A4005
:101103005D446822295000020A25693000032E0835
:1011130000050B44800A7E0BB07A1BB00B1C0B0C32
:101123001B4478F280D7020E7D1B34681B1B346886
:101133001C1B34681D1B3468271B3468282E34009D
:10114300057827A2F8E43322A2F9E43322A2FAE4D1
:10115300332230FB03740122A2FBE43368FAE42256
:10116300A2B2E43322A2B3E4332274FF227F2069C4
:10117300320006692200049D237E1400167E0400BB
:10118300017CB41215A3120FD912159D7D23BE2421
:10119300006408067E240064800ABE24FF9C580471
:1011A3007E24FF9C9000460BEA302D32021470CA55
:1011B3007BCA6BCA5BCA4BCA2BCA1BCA0BC0D1C042
:1011C300D0C083C0829000CCE004F07E3400017E66
:1011D300240002120B26D082D083D0D0D0D1DA0BD8
:1011E300DA1BDA2BDA4BDA5BDA6BDA7B32CAD8CA70
:1011F300797CFB6CEE7ED008C2A5120086120086B5
:10120300120086D2A53EE030A4020BE01200861B3A
:10121300D078E54CFF6805121455800312143A7C0C
:10122300BEDA79DAD822E412133090000C1BEA30CC
:10123300740112133090000E1BEA30740A1213303B
:101243009000101BEA3074091213309000121BEA4D
:1012530030740B1213309000141BEA3022CA7BCA7D
:101263006BCA5BCA4BCA2BCA1BCA0BC0D1C0D0C046
:1012730083C0826D337E240002120B26D082D0837A
:10128300D0D0D0D1DA0BDA1BDA2BDA4BDA5BDA6B9C
:10129300DA7B32CA7BCA6BCA5BCA4BCA2BCA1BCA6C
:1012A3000BC0D1C0D0C083C0826D337E2400021234
:1012B3000B26D082D083D0D0D0D1DA0BDA1BDA2B35
:1012C300DA4BDA5BDA6BDA7B32CAD8CA796CFF0A9B
:1012D3003F2E3400B07CB71213AC74011213AC74FC
:1012E300101213AC6CDDE41213D10BD0BED0847892
:1012F300F50BF0BEF00840D7DA79DAD822CA797C48
:10130300FBC2A57EE0087CBF30E704D2A48002C202
:10131300A4D2A51200863EF0120086120086C2A552
:101323001200861BE078DF120086DA792275DD0071
:1013330075DE007EA1DC5EA0F04EA0404CBAF5DC69
:1013430000000000E5DC30E5FB53DCDFE5DD7C4B32
:101353006C55E5DE0A3B4D3222439B80743F7E345D
:10136300FEAB7E24007E7A1BB0539B7F43DF2F436B
:10137300DF2075DC8053F2F143F10E53F4FC43F3A9
:101383000F22CAF86CFFD2A4120086D2A5120086DF
:10139300800E0BF0BEF0642807120066740180060D
:1013A30020A4EFC2A5E4DAF8227C7B7E6008C2E9C0
:1013B300C2EC80117CB730E704D2EB8002C2EBD2DF
:1013C300ECC2EC3E707CA61B604CAA78E7227C7BC7
:1013D3007E6008D2E9C2EC80117CB730E704D2EB1F
:1013E3008002C2EBD2ECC2EC3E707CA61B604CAA1E
:1013F30078E722CAF87CFB0A572E5400B01213ACCC
:101403007CBF54F0C4540F44101213AC7CBF540F70
:101413001213ACDAF822D2A4D2A5120086120086E7
:10142300120086120086120086C2A41200861200E1
:1014330086120086C2A522C2A5D2A412008612007B
:1014430086120086D2A5120086120086120086C27A
:10145300A522C2A5C2A4120086120086120086D25B
:10146300A5120086120086120086C2A5227D0343C0
:101473009B807E34FEDB7E24007E7A1B007E34FE5E
:10148300DC7A1B10539B7F225393EF5393F74393C1
:10149300047CB6F5CD7F21F5CE53E7FB43931022B1
:1014A300CAB8C0D1C083C0829000C9E004F0D08222
:1014B300D083D0D1DAB832CAB8C0D1C083C0829049
:1014C30000CAE004F0D082D083D0D1DAB832CAB8EF
:1014D300C0D1C083C0829000CBE004F0D082D0831F
:1014E300D0D1DAB832CAB8C0D1C083C0829000CD9F
:1014F300E004F0D082D083D0D1DAB8327E34FE86D5
:101503007E24007E7A1BB074027E34FE817A1BB087
:101513000215167E34FE827E24007E7E1BB030E6EA
:10152300F27E1BB054BF7A1BB0227D237E34138816
:101533007D131B147D3178F87D121B147D2178EC0B
:101543002275CC0075CB0043DB0C75CA0075C9004E
:1015530043DBC022C28BC289C2A8C2AAD288D28A64
:10156300439520D2AF2274017E34FE817E24007E17
:101573007A1BB0021516C0D1309802C29830990276
:10158300C299D0D13253F5FEE5F5F5F553F6FE4396
:10159300F6012275D20075D30022758F25A5EF229F
:1015A3007D32758F2822434E543A25303364200010
:1015B3004C5120652D6D6F746F726379636C650098
:1015C300B1B1BEA9C1FAC7F1D6C7C4DCBFC6BCBCA2
:1015D3000020202020FE000000FE8040201000108C
:1015E3001008047F0000003F40404070000808E8F6
:1015F30028282A2C282828E80808000020130A4253
:10160300427E02020A1320000000F090909090FEA8
:1016130090909090F00000000F040404043F4444B1
:101623004444477000808282828282C2A2928A8668
:101633008280000000000040407F000000000000A6
:1016430000404848F8444420C41800FE0000000845
:1016530004037F0204020202027F0101001010FE54
:101663001000909090FE909010000042427F014045
:1016730040231408142340400004FC2424FC0400E9
:10168300FC040404FC0000101F11097F084033020E
:10169300020213600010608000FE000000FE008064
:1016A300700000404043407F4040407F4241404003
:1016B3000070109294909294909894121070000479
:1016C30004040444447E06050404040400FC046486
:1016D3009C001848484A4C484818007F08080740AF
:1016E30022120E02023E42620020202020A07E2011
:1016F300E0242820A020004020100C2320103F4489
:10170300424140700000FC444444C24200FC044493
:10171300B40C00101F1010080F08007F0010100FEA
:101723000028A6643C64A420FC848484FC0000019B
:10173300007E2A2A2A2A2A2A2A7E00000010989448
:1017430092909830003E4848447400007F0A0A4A49
:101753007F00003F44444271001090FE901000FC53
:10176300040404FC00000002017F0041300F00006C
:10177300003F407000809E9292929EC09E92B2D291
:101783009E8000047C4A4A49780078494A4A7C048E
:10179300000000000000807E800000000000004088
:1017A3004020100C0300030C10204040004042CCAA
:1017B30000846C544CD444524E020040201F2042FB
:1017C3005A52525F52525A42001010FE100098486B
:1017D3002A0C082848980042427F01004042427E7A
:1017E3004242424000809E9292929EC09E92B2D20A
:1017F3009E8000047C4A4A49780078494A4A7C041E
:10180300001010FE10504858EA4C685848400042F7
:10181300427F01424A2E13122A2642020000F80098
:1018230000FE004020DE1010F01000000702017FD0
:1018330000402017081621400000302C20A0702EF5
:101843002020202428200010084442412729112960
:1018530025434040008084980080929490F09094B7
:1018630092800040201F2040504846414244584047
:10187300001010FE1000B88888EA8C8888B80042EF
:10188300427F01004044271808142340002050CE13
:101893004800C8B820A8FEA8F8200002023F52283A
:1018A300102F204A7F4A4A48000000008080000031
:1018B30000000000000000000000191900000000F3
:1018C3000000000000B1B1BEA9B5E7D7D3BFC6BCC5
:1018D300BCD6B0D2B5D1A7D4BAC1FAC7F1D6C7C462
:1018E300DCBBFAC6F7C8CBD2A3BFD8C6F7BDD3CAF1
:1018F300D5B7A2CBCDB0B4BCFCA3BA0000000000A6
:1019030000000000002F0000000007000700001483
:101913007F147F1400242A7F2A1200626408132391
:1019230000364955225000000503000000001C2228
:101933004100000041221C000014083E0814000866
:10194300083E0808000000A0600000080808080816
:10195300000060600000002010080402003E5149AE
:10196300453E0000427F400000426151494600214C
:1019730041454B31001814127F1000274545453966
:10198300003C4A49493000017109050300364949C1
:10199300493600064949291E00003636000000007A
:1019A30056360000000814224100001414141414C5
:1019B300000041221408000201510906003249596E
:1019C300513E007C1211127C007F49494936003E8A
:1019D30041414122007F4141221C007F4949494145
:1019E300007F09090901003E4149497A007F08083F
:1019F300087F0000417F4100002040413F01007FFC
:101A030008142241007F40404040007F020C027FC7
:101A1300007F0408107F003E4141413E007F0909D9
:101A23000906003E4151215E007F091929460046FF
:101A3300494949310001017F0101003F4040403FD6
:101A4300001F2040201F003F4038403F0063140820
:101A530014630007087008070061514945430000FB
:101A63007F41410000552A552A55000041417F001E
:101A73000004020102040040404040400000010213
:101A83000400002054545478007F484444380038FC
:101A93004444442000384444487F00385454541884
:101AA30000087E0901020018A4A4A47C007F080496
:101AB30004780000447D4000004080847D00007F66
:101AC300102844000000417F4000007C0418047883
:101AD300007C0804047800384444443800FC24247F
:101AE30024180018242418FC007C08040408004867
:101AF3005454542000043F444020003C4040207C88
:101B0300001C2040201C003C4030403C0044281076
:101B13002844001CA0A0A07C004464544C4414142A
:101B23001414141400000000000000000000000062
:101B330000000000000000F8000000000000003377
:101B43003000000000100C06100C0600000000001E
:101B53000000000040C07840C0784000043F040407
:101B63003F040400007088FC08300000001820FFC8
:101B7300211E0000F008F000E018000000211C0303
:101B83001E211E0000F00888700000001E2123247F
:101B93001927211010160E0000000000000000009D
:101BA30000000000000000E018040200000000072D
:101BB3001820400000020418E00000000040201834
:101BC30007000000404080F0804040000202010F07
:101BD30001020200000000F0000000000101011FEB
:101BE30001010100000000000000000080B070004F
:101BF30000000000000000000000000000010101DF
:101C0300010101010000000000000000003030006D
:101C13000000000000000000806018040060180647
:101C23000100000000E010080810E000000F102081
:101C330020100F00001010F8000000000020203FCB
:101C43002020000000700808088870000030282455
:101C530022213000003008888848300000182020F6
:101C630020110E000000C02010F80000000704241B
:101C7300243F240000F80888880808000019212060
:101C830020110E0000E0108888180000000F1120BA
:101C930020110E0000380808C83808000000003F73
:101CA300000000000070880808887000001C2221D2
:101CB30021221C0000E010080810E000000031227F
:101CC30022110F00000000C0C0000000000000301F
:101CD3003000000000000080000000000000806071
:101CE30000000000000080402010080000010204F2
:101CF30008102000404040404040400004040404D9
:101D03000404040000081020408000000020100894
:101D130004020100007048080808F00000000030C9
:101D230036010000C030C828E810E0000718272457
:101D330023140B000000C038E0000000203C230205
:101D43000227382008F8888888700000203F202068
:101D530020110E00C030080808083800071820209A
:101D63002010080008F808080810E000203F202091
:101D730020100F0008F88888E8081000203F202072
:101D83002320180008F88888E8081000203F200066
:101D930003000000C030080808380000071820209E
:101DA300221E020008F808000008F808203F21015D
:101DB30001213F20000808F8080800000020203F08
:101DC3002020000000000808F8080800C080808078
:101DD3007F00000008F888C028180800203F200171
:101DE3002638200008F8080000000000203F2020CB
:101DF3002020300008F8F800F8F80800203F003FE2
:101E0300003F200008F830C00008F808203F2000F9
:101E130007183F00E01008080810E0000F1020200A
:101E230020100F0008F808080808F000203F2101DF
:101E330001010000E01008080810E0000F18242436
:101E430038504F0008F8888888887000203F2000A9
:101E5300030C30200070880808083800003820215F
:101E630021221C00180808F8080818000000203F69
:101E73002000000008F808000008F808001F2020D0
:101E830020201F000878880000C8380800000738A1
:101E93000E010000F80800F80008F800033C0700F2
:101EA300073C0300081868808068180820302C035A
:101EB300032C30200838C800C83808000000203F31
:101EC3002000000010080808C83808002038262120
:101ED30020201800000000FE020202000000007F24
:101EE30040404000000C30C0000000000000000132
:101EF3000638C00000020202FE000000004040401D
:101F03007F00000000000402020204000000000041
:101F130000000000000000000000000080808080BE
:101F230080808080000202040000000000000000A6
:101F3300000000000000808080800000001924223F
:101F430022223F2008F8008080000000003F11207B
:101F530020110E000000008080800000000E112080
:101F630020201100000000808088F800000E11205E
:101F730020103F200000808080800000001F22226C
:101F830022221300008080F0888888180020203FD8
:101F9300202000000000808080808000006B9494EB
:101FA3009493600008F8008080800000203F2100A7
:101FB30000203F2000809898000000000020203F70
:101FC30020200000000000809898000000C080805E
:101FD300807F000008F8000080808000203F2402FA
:101FE3002D302000000808F8000000000020203FEA
:101FF300202000008080808080808000203F20009F
:102003003F20003F8080008080800000203F21002F
:1020130000203F200000808080800000001F2020DF
:1020230020201F00808000808000000080FFA1200E
:1020330020110E000000008080808000000E11201F
:1020430020A0FF80808080008080800020203F21AE
:102053002000010000008080808080000033242461
:1020630024241900008080E0808000000000001F0D
:10207300202000008080000000808000001F2020BE
:1020830020103F20808080000080808000010E307F
:102093000806010080800080008080800F300C03E0
:1020A3000C300F0000808000808080000020312EE3
:1020B3000E312000808080000080808080818E70BF
:1020C3001806010000808080808080000021302C71
:1020D3002221300000000000807C0202000000008A
:1020E300003F404000000000FF000000000000002F
:1020F300FF0000000002027C800000000040403F1F
:1021030000000000000601010202040400000000B8
:1021130000000000000000000000000000000000BC
:1021230000000000000000000000000000000000AC
:1021330000000000000000000000000000003F3F1E
:102143003F3F3FC0C0C0C0C000000000000000000F
:10215300000000000000000000000000000000007C
:10216300000000000000000000000000000000006C
:10217300000000000000000000000000000080C01C
:10218300E0E0F0F0F0F00000000000F0F0F0F0F01C
:10219300F0F0F0F0F0F0F0F0F0F0F0F0F0F0F0F03C
:1021A300F0F0F0F0F0F0F0F0F0F0F00707070707B9
:1021B30000000000000000000000E0F0F0F000006C
:1021C30000000060E0E0C0000000000000C0E0E0AC
:1021D300E0606060607070303000E0E0E0E020605C
:1021E300E0E0E040F0FEFFFFFFFFFFFFFFFF000026
:1021F300000000FFFFFFFFFFFFFFFFFF1F1F1F1F69
:102203001F1F1F1F1F1F1F1F1F1F1F1F1F1F1FFFFB
:10221300FFFFFFFEFEFEFEFE0000000606060606AA
:10222300C6FEFFFF1F070606FEFEFE06060686C65F
:102233006606000000FFFFFFFF3030F0F0F0F030E3
:102243003000FFFFFFFF4078FFFFFF80FFFFFFFF2E
:10225300FFFFFFFFFFFF0000000000FFFFFFFFFF86
:10226300FFFFFFFF0000000000000000000000006F
:1022730000000000000000FFFFFFFFFFFFFFFFFF64
:102283000000000000C0F0FEFF3F0780C0C0607088
:10229300FFFFFF0E070301000000000000FFFFFF28
:1022A300FF0000FFFFFFFF000000FFFFFFFF000034
:1022B300FFFFFFFFFFFFFFFFFFFFFFFFFFFF000029
:1022C300000000FFFFFFFFFFFFFFFFFF0000000014
:1022D300000000000000000000000000000080FF7C
:1022E300FFFFFFFFFFFFFFFF000000040F0F0703C7
:1022F3000000030101000000070F0F0E0C0C0C0C73
:102303000C0C00000407070707060203030303037B
:102313000300070F0F07030303030100FFFFFFFF82
:10232300FFFFFFFFFFFF0000000000FFFFFFFFFFB5
:10233300FFFFFFFFFFFFFFFFFFFFFFFFFFFFFFFFAA
:10234300FFFFFFFFFFFFFFFFFFFFFFFFFFFFFFFF9A
:10235300000000424242FEFEFFE743434100061EE7
:102363003E3C3000FFFFFFFF000000004040FFFF46
:10237300FFFF4000080808080808FFFFFFFF0808E0
:10238300080808087FFFFFFFFFFFFFFFFFFFC0C034
:10239300C0C0C0C1C1C1C1C1C1C1C1C1C1C1C1C12D
:1023A300C1C1C1C1C1C1C1C1C1010101010101FF5C
:1023B300FFFFFFFFFFFFFFFF000000FFFF00FFFF26
:1023C300FF00FEFF0000030F1F1E1800FFFFFFFFAB
:1023D300808000008080FFFFFFFF400000021A7A28
:1023E300FAF2E38383C3F2FE7E3E0E0000070F1F63
:1023F3003F3F7F7F7F7F7F7F7F7F7F7F7F7F7F7F6A
:102403007F7F7F7F7F7F7F7F7F7F7F7F7F7F7F7FD9
:102413007F0000000000007F7F7F3F3F1F0F07000A
:102423000000007F7F007F7F7F003F7F000003016C
:10243300010101017F7F7F7F0000000040607F7FFB
:102443007F3F000000406070787D3F1F1F3F7F7813
:10245300706040004B4559302631263221004B45F0
:1024630059312632212020004B4559302632212074
:1024730020004B4559302631212020004B4559324D
:102483002120202020004B455931212020202000ED
:102493004B4559302120202020004B4559205072B4
:1024A30065737365643A2020004C6F6E6720516931
:1024B3007520692E732E742E00B1B1BEA9C1FAC75F
:1024C300F1D6C7C4DCBFC6BCBC0000020100920049
:1024D300000002010094000000080100A4000000B5
:1024E300000000000000080100AC01F401F400004A
:1024F3000000000A010000096B06B508AA092806B6
:102503003F000201000A01040002010046068B009D
:102513000201004800000000536572766F3A2530CF
:10252300356420004C5120536572766F20546573D7
:10253300740050574D3A20252E32663B0050574DBC
:102543003A20253035643B004C51204D6F746F7237
:10255300205465737400583A000000000000000026
:102563000000000000004144333A25303464200069
:102573004144323A2530346420004144313A253015
:10258300346420004144303A2530346420004C6FD9
:102593006E672051697520692E732E742E00B1B1B8
:1025A300BEA9C1FAC7F1D6C7C4DCBFC6BCBC0041D3
:1025B30044343A2530346420004144333A253034DE
:1025C3006420004144323A253034642000414431D0
:1025D3003A2530346420004144303A2530346420B5
:1025E300005779745A6E6300456E63323A20253082
:1025F300346420200050574D3A20253035643B0089
:10260300456E63313A2025303464202000546573CD
:102613007420456E636F64657200494E54335F6383
:092623006E743A25303364200086
:00000001FF
